{
  "contractName": "LostMobileList",
  "abi": [
    {
      "constant": true,
      "inputs": [],
      "name": "lostMobileCount",
      "outputs": [
        {
          "name": "",
          "type": "uint256"
        }
      ],
      "payable": false,
      "stateMutability": "view",
      "type": "function",
      "signature": "0x2163b756"
    },
    {
      "constant": true,
      "inputs": [
        {
          "name": "",
          "type": "uint256"
        }
      ],
      "name": "LostMobiles",
      "outputs": [
        {
          "name": "id",
          "type": "uint256"
        },
        {
          "name": "IMEI",
          "type": "string"
        },
        {
          "name": "mobileNumber",
          "type": "string"
        },
        {
          "name": "location",
          "type": "string"
        }
      ],
      "payable": false,
      "stateMutability": "view",
      "type": "function",
      "signature": "0x2179582f"
    },
    {
      "constant": true,
      "inputs": [
        {
          "name": "",
          "type": "address"
        }
      ],
      "name": "users",
      "outputs": [
        {
          "name": "operator",
          "type": "string"
        },
        {
          "name": "weight",
          "type": "uint256"
        }
      ],
      "payable": false,
      "stateMutability": "view",
      "type": "function",
      "signature": "0xa87430ba"
    },
    {
      "constant": true,
      "inputs": [],
      "name": "gsm",
      "outputs": [
        {
          "name": "",
          "type": "address"
        }
      ],
      "payable": false,
      "stateMutability": "view",
      "type": "function",
      "signature": "0xf44320a0"
    },
    {
      "inputs": [],
      "payable": false,
      "stateMutability": "nonpayable",
      "type": "constructor",
      "signature": "constructor"
    },
    {
      "anonymous": false,
      "inputs": [
        {
          "indexed": false,
          "name": "id",
          "type": "uint256"
        },
        {
          "indexed": false,
          "name": "IMEI",
          "type": "string"
        },
        {
          "indexed": false,
          "name": "mobileNumber",
          "type": "string"
        },
        {
          "indexed": false,
          "name": "location",
          "type": "string"
        }
      ],
      "name": "LostMobileAdded",
      "type": "event",
      "signature": "0xc2e356eb6a47f10a76daed63eb9b2be65c4f317e49830cdfd6d3cd25e56d8b90"
    },
    {
      "anonymous": false,
      "inputs": [
        {
          "indexed": false,
          "name": "IMEI",
          "type": "string"
        }
      ],
      "name": "LostMobileRemoved",
      "type": "event",
      "signature": "0x32256ae2a7c3c2c828e1161971239d1c0422eaa3701a52a09dc7427caaf41dcc"
    },
    {
      "anonymous": false,
      "inputs": [
        {
          "indexed": false,
          "name": "id",
          "type": "uint256"
        },
        {
          "indexed": false,
          "name": "IMEI",
          "type": "string"
        },
        {
          "indexed": false,
          "name": "mobileNumber",
          "type": "string"
        },
        {
          "indexed": false,
          "name": "location",
          "type": "string"
        }
      ],
      "name": "LostMobileEditted",
      "type": "event",
      "signature": "0x662e55054ebef986a9dc9d0c41b3c8e14e2f4befed35c3477bb6dbf2bd667469"
    },
    {
      "constant": false,
      "inputs": [
        {
          "name": "addr",
          "type": "address"
        },
        {
          "components": [
            {
              "name": "operator",
              "type": "string"
            },
            {
              "name": "weight",
              "type": "uint256"
            }
          ],
          "name": "company",
          "type": "tuple"
        }
      ],
      "name": "addOperator",
      "outputs": [],
      "payable": false,
      "stateMutability": "nonpayable",
      "type": "function",
      "signature": "0xf70ce4c6"
    },
    {
      "constant": false,
      "inputs": [
        {
          "name": "addr",
          "type": "address"
        },
        {
          "components": [
            {
              "name": "operator",
              "type": "string"
            },
            {
              "name": "weight",
              "type": "uint256"
            }
          ],
          "name": "company",
          "type": "tuple"
        }
      ],
      "name": "removeOperator",
      "outputs": [],
      "payable": false,
      "stateMutability": "nonpayable",
      "type": "function",
      "signature": "0xe6b1a2fb"
    },
    {
      "constant": false,
      "inputs": [
        {
          "name": "_IMEI",
          "type": "string"
        },
        {
          "name": "_mobileNumber",
          "type": "string"
        },
        {
          "name": "_location",
          "type": "string"
        }
      ],
      "name": "addLostMobile",
      "outputs": [],
      "payable": false,
      "stateMutability": "nonpayable",
      "type": "function",
      "signature": "0xe77df686"
    },
    {
      "constant": false,
      "inputs": [
        {
          "name": "_IMEI",
          "type": "string"
        }
      ],
      "name": "removeLostMobile",
      "outputs": [],
      "payable": false,
      "stateMutability": "nonpayable",
      "type": "function",
      "signature": "0x0c38d43e"
    },
    {
      "constant": false,
      "inputs": [
        {
          "name": "_IMEI",
          "type": "string"
        },
        {
          "name": "_mobileNumber",
          "type": "string"
        },
        {
          "name": "_location",
          "type": "string"
        }
      ],
      "name": "editLostMobile",
      "outputs": [],
      "payable": false,
      "stateMutability": "nonpayable",
      "type": "function",
      "signature": "0x9b4b21f1"
    }
  ],
  "bytecode": "0x60806040526000805534801561001457600080fd5b5060038054600160a060020a031916339081179091556000908152600260208190526040909120600101556113888061004e6000396000f3fe6080604052600436106100985763ffffffff7c01000000000000000000000000000000000000000000000000000000006000350416630c38d43e811461009d5780632163b756146100bf5780632179582f146100ea5780639b4b21f11461011a578063a87430ba1461013a578063e6b1a2fb14610168578063e77df68614610188578063f44320a0146101a8578063f70ce4c6146101ca575b600080fd5b3480156100a957600080fd5b506100bd6100b8366004610fb6565b6101ea565b005b3480156100cb57600080fd5b506100d46103ca565b6040516100e1919061123b565b60405180910390f35b3480156100f657600080fd5b5061010a61010536600461107f565b6103d0565b6040516100e19493929190611249565b34801561012657600080fd5b506100bd610135366004610feb565b610598565b34801561014657600080fd5b5061015a610155366004610f3e565b610ac4565b6040516100e19291906111eb565b34801561017457600080fd5b506100bd610183366004610f64565b610b65565b34801561019457600080fd5b506100bd6101a3366004610feb565b610bdd565b3480156101b457600080fd5b506101bd610ce7565b6040516100e191906111c6565b3480156101d657600080fd5b506100bd6101e5366004610f64565b610d03565b33600090815260026020526040902060019081015410156102295760405160e560020a62461bcd0281526004016102209061120b565b60405180910390fd5b60015b600054811161038457816040516020018082805190602001908083835b602083106102685780518252601f199092019160209182019101610249565b6001836020036101000a038019825116818451168082178552505050505050905001915050604051602081830303815290604052805190602001206001600083815260200190815260200160002060010160405160200180828054600181600116156101000203166002900480156103175780601f106102f5576101008083540402835291820191610317565b820191906000526020600020905b815481529060010190602001808311610303575b505091505060405160208183030381529060405280519060200120141561037c5760008181526001602081905260408220828155919061035990830182610d8b565b610367600283016000610d8b565b610375600383016000610d8b565b5050610384565b60010161022c565b50600080546000190190556040517f32256ae2a7c3c2c828e1161971239d1c0422eaa3701a52a09dc7427caaf41dcc906103bf9083906111da565b60405180910390a150565b60005481565b600160208181526000928352604092839020805481840180548651600296821615610100026000190190911695909504601f8101859004850286018501909652858552909491939290919083018282801561046c5780601f106104415761010080835404028352916020019161046c565b820191906000526020600020905b81548152906001019060200180831161044f57829003601f168201915b50505060028085018054604080516020601f60001961010060018716150201909416959095049283018590048502810185019091528181529596959450909250908301828280156104fe5780601f106104d3576101008083540402835291602001916104fe565b820191906000526020600020905b8154815290600101906020018083116104e157829003601f168201915b5050505060038301805460408051602060026001851615610100026000190190941693909304601f810184900484028201840190925281815294959493509083018282801561058e5780601f106105635761010080835404028352916020019161058e565b820191906000526020600020905b81548152906001019060200180831161057157829003601f168201915b5050505050905084565b33600090815260026020526040902060019081015410156105ce5760405160e560020a62461bcd0281526004016102209061120b565b60015b6000548111610abe57836040516020018082805190602001908083835b6020831061060d5780518252601f1990920191602091820191016105ee565b6001836020036101000a038019825116818451168082178552505050505050905001915050604051602081830303815290604052805190602001206001600083815260200190815260200160002060010160405160200180828054600181600116156101000203166002900480156106bc5780601f1061069a5761010080835404028352918201916106bc565b820191906000526020600020905b8154815290600101906020018083116106a8575b5050915050604051602081830303815290604052805190602001201415610ab657604080516020818101808452600080845293518794879493849392019182918083835b6020831061071f5780518252601f199092019160209182019101610700565b6001836020036101000a03801982511681845116808217855250505050505090500191505060405160208183030381529060405280519060200120866040516020018082805190602001908083835b6020831061078d5780518252601f19909201916020918201910161076e565b6001836020036101000a038019825116818451168082178552505050505050905001915050604051602081830303815290604052805190602001201415610869576000848152600160208181526040928390206002908101805485519481161561010002600019011691909104601f81018390048302840183019094528383529192908301828280156108615780601f1061083657610100808354040283529160200191610861565b820191906000526020600020905b81548152906001019060200180831161084457829003601f168201915b505050505092505b806040516020018082805190602001908083835b6020831061089c5780518252601f19909201916020918201910161087d565b6001836020036101000a03801982511681845116808217855250505050505090500191505060405160208183030381529060405280519060200120856040516020018082805190602001908083835b6020831061090a5780518252601f1990920191602091820191016108eb565b6001836020036101000a0380198251168184511680821785525050505050509050019150506040516020818303038152906040528051906020012014156109e85760008481526001602081815260409283902060030180548451600294821615610100026000190190911693909304601f81018390048302840183019094528383529192908301828280156109e05780601f106109b5576101008083540402835291602001916109e0565b820191906000526020600020905b8154815290600101906020018083116109c357829003601f168201915b505050505091505b6040805160808101825285815260208082018a81528284018790526060830186905260008881526001808452949020835181559051805193949193610a3593928501929190910190610dd2565b5060408201518051610a51916002840191602090910190610dd2565b5060608201518051610a6d916003840191602090910190610dd2565b509050507f662e55054ebef986a9dc9d0c41b3c8e14e2f4befed35c3477bb6dbf2bd66746984888585604051610aa69493929190611249565b60405180910390a1505050610abe565b6001016105d1565b50505050565b600260208181526000928352604092839020805484516001821615610100026000190190911693909304601f8101839004830284018301909452838352928391830182828015610b555780601f10610b2a57610100808354040283529160200191610b55565b820191906000526020600020905b815481529060010190602001808311610b3857829003601f168201915b5050505050908060010154905082565b60035473ffffffffffffffffffffffffffffffffffffffff163314610b9f5760405160e560020a62461bcd0281526004016102209061121b565b73ffffffffffffffffffffffffffffffffffffffff8216600090815260026020526040812090610bcf8282610d8b565b600182016000905550505050565b3360009081526002602052604090206001908101541015610c135760405160e560020a62461bcd0281526004016102209061122b565b600080546001908101808355604080516080810182528281526020808201898152828401899052606083018890529386528481529190942084518155915180519293610c6793908501929190910190610dd2565b5060408201518051610c83916002840191602090910190610dd2565b5060608201518051610c9f916003840191602090910190610dd2565b509050507fc2e356eb6a47f10a76daed63eb9b2be65c4f317e49830cdfd6d3cd25e56d8b90600054848484604051610cda9493929190611249565b60405180910390a1505050565b60035473ffffffffffffffffffffffffffffffffffffffff1681565b60035473ffffffffffffffffffffffffffffffffffffffff163314610d3d5760405160e560020a62461bcd0281526004016102209061121b565b73ffffffffffffffffffffffffffffffffffffffff82166000908152600260209081526040909120825180518493610d79928492910190610dd2565b50602082015181600101559050505050565b50805460018160011615610100020316600290046000825580601f10610db15750610dcf565b601f016020900490600052602060002090810190610dcf9190610e50565b50565b828054600181600116156101000203166002900490600052602060002090601f016020900481019282601f10610e1357805160ff1916838001178555610e40565b82800160010185558215610e40579182015b82811115610e40578251825591602001919060010190610e25565b50610e4c929150610e50565b5090565b610e6a91905b80821115610e4c5760008155600101610e56565b90565b6000610e7982356112ee565b9392505050565b6000601f82018313610e9157600080fd5b8135610ea4610e9f826112c2565b61129b565b91508082526020830160208301858383011115610ec057600080fd5b610ecb83828461130c565b50505092915050565b600060408284031215610ee657600080fd5b610ef0604061129b565b9050813567ffffffffffffffff811115610f0957600080fd5b610f1584828501610e80565b8252506020610f2684848301610f32565b60208301525092915050565b6000610e798235610e6a565b600060208284031215610f5057600080fd5b6000610f5c8484610e6d565b949350505050565b60008060408385031215610f7757600080fd5b6000610f838585610e6d565b925050602083013567ffffffffffffffff811115610fa057600080fd5b610fac85828601610ed4565b9150509250929050565b600060208284031215610fc857600080fd5b813567ffffffffffffffff811115610fdf57600080fd5b610f5c84828501610e80565b60008060006060848603121561100057600080fd5b833567ffffffffffffffff81111561101757600080fd5b61102386828701610e80565b935050602084013567ffffffffffffffff81111561104057600080fd5b61104c86828701610e80565b925050604084013567ffffffffffffffff81111561106957600080fd5b61107586828701610e80565b9150509250925092565b60006020828403121561109157600080fd5b6000610f5c8484610f32565b6110a6816112ee565b82525050565b60006110b7826112ea565b8084526110cb816020860160208601611318565b6110d481611344565b9093016020019392505050565b602e81527f4f6e6c79204f70657261746f727320616e642047534d2063616e2072656d6f7660208201527f65204c6f7374204d6f62696c6573000000000000000000000000000000000000604082015260600190565b600b81527f4d7573742062652047534d000000000000000000000000000000000000000000602082015260400190565b602381527f4f6e6c79204f70657261746f72732063616e20616464204c6f7374204d6f626960208201527f6c65730000000000000000000000000000000000000000000000000000000000604082015260600190565b6110a681610e6a565b602081016111d4828461109d565b92915050565b60208082528101610e7981846110ac565b604080825281016111fc81856110ac565b9050610e7960208301846111bd565b602080825281016111d4816110e1565b602080825281016111d481611137565b602080825281016111d481611167565b602081016111d482846111bd565b6080810161125782876111bd565b818103602083015261126981866110ac565b9050818103604083015261127d81856110ac565b9050818103606083015261129181846110ac565b9695505050505050565b60405181810167ffffffffffffffff811182821017156112ba57600080fd5b604052919050565b600067ffffffffffffffff8211156112d957600080fd5b506020601f91909101601f19160190565b5190565b600073ffffffffffffffffffffffffffffffffffffffff82166111d4565b82818337506000910152565b60005b8381101561133357818101518382015260200161131b565b83811115610abe5750506000910152565b601f01601f19169056fea265627a7a723058207da6eb670ae3d685bb9d24794dfb9722ae74e5e6279c84c053fd84f732fd3d496c6578706572696d656e74616cf50037",
  "source": "pragma solidity ^0.5.0;\r\npragma experimental ABIEncoderV2; //typeerror ke liye tha\r\n\r\ncontract LostMobileList{\r\n    uint public lostMobileCount = 0;\r\n    \r\n    struct LostMobile {\r\n    uint id;\r\n    string IMEI;\r\n    string mobileNumber;\r\n    string location;\r\n  }\r\n\r\n  mapping(uint => LostMobile) public LostMobiles;\r\n\r\n  event LostMobileAdded(\r\n    uint id,\r\n    string IMEI,\r\n    string mobileNumber,\r\n    string location\r\n  );\r\n\r\n  event LostMobileRemoved(\r\n    string IMEI\r\n  );\r\n\r\n    \r\n  event LostMobileEditted(\r\n    uint id,\r\n    string IMEI,\r\n    string mobileNumber,\r\n    string location  \r\n  );\r\n  //will optimise subha\r\n  struct Operator{\r\n    string operator;\r\n    uint weight; //1: edit, add, delete, 2: GSM\r\n  }\r\n  mapping(address=> Operator) public users; //map for address and users\r\n  address public gsm;\r\n\r\n  constructor() public {\r\n    gsm=msg.sender;\r\n    users[msg.sender].weight=2;\r\n\r\n  }\r\n  function addOperator(address addr, Operator memory company) public {\r\n     require(msg.sender==gsm,'Must be GSM');\r\n      users[addr]=company;\r\n  }\r\n  function removeOperator(address addr, Operator memory company) public {\r\n    require(msg.sender==gsm,'Must be GSM');\r\n    delete(users[addr]);\r\n    \r\n  }  \r\n\r\n  function addLostMobile(string memory _IMEI,string memory _mobileNumber,string memory _location) public {\r\n    require(users[msg.sender].weight>=1,'Only Operators can add Lost Mobiles');\r\n    lostMobileCount ++;\r\n    LostMobiles[lostMobileCount] = LostMobile(lostMobileCount,_IMEI,_mobileNumber,_location);\r\n    emit LostMobileAdded(lostMobileCount, _IMEI, _mobileNumber, _location);\r\n  }\r\n\r\n  function removeLostMobile(string memory _IMEI) public {\r\n    require(users[msg.sender].weight>=1,'Only Operators and GSM can remove Lost Mobiles');\r\n    for(uint i = 1; i<= lostMobileCount; i++){\r\n        if(keccak256(abi.encodePacked(LostMobiles[i].IMEI)) == (keccak256(abi.encodePacked(_IMEI)))) {\r\n            delete LostMobiles[i];\r\n            break;\r\n        }\r\n    }\r\n    lostMobileCount--;\r\n    emit LostMobileRemoved(_IMEI);\r\n  }\r\n\r\nfunction editLostMobile(string memory _IMEI,string memory _mobileNumber,string memory _location) public {\r\n   require(users[msg.sender].weight>=1,'Only Operators and GSM can remove Lost Mobiles');\r\n    for(uint i = 1; i<= lostMobileCount; i++){\r\n        if(keccak256(abi.encodePacked(LostMobiles[i].IMEI)) == (keccak256(abi.encodePacked(_IMEI)))){\r\n            \r\n            string memory mobNum = _mobileNumber;\r\n            string memory loc = _location;\r\n            string memory empty = \"\";\r\n\r\n            if(keccak256(abi.encodePacked(_mobileNumber)) == (keccak256(abi.encodePacked(empty)))){\r\n              mobNum = LostMobiles[i].mobileNumber;\r\n            }\r\n\r\n            if(keccak256(abi.encodePacked(_location)) == (keccak256(abi.encodePacked(empty)))){\r\n              loc = LostMobiles[i].location;\r\n            }\r\n            \r\n            LostMobiles[i] = LostMobile(i, _IMEI, mobNum, loc);\r\n            emit LostMobileEditted(i, _IMEI, mobNum, loc);\r\n            break;\r\n        }\r\n  }}\r\n\r\n}",
  "sourcePath": "E:/BITS/4.1 Psenti Sem ;)/IoT/iot-mobile-theft/contracts/LostMobileList.sol",
  "compiler": {
    "name": "solc",
    "version": "0.5.0+commit.1d4f565a.Emscripten.clang"
  },
  "schemaVersion": "3.0.1",
  "updatedAt": "2022-12-09T12:09:16.412Z",
  "devdoc": {
    "methods": {}
  },
  "userdoc": {
    "methods": {}
  }
}