{
  "contractName": "LostMobileList",
  "abi": [
    {
      "constant": true,
      "inputs": [],
      "name": "lostMobileCount",
      "outputs": [
        {
          "name": "",
          "type": "uint256"
        }
      ],
      "payable": false,
      "stateMutability": "view",
      "type": "function",
      "signature": "0x2163b756"
    },
    {
      "constant": true,
      "inputs": [
        {
          "name": "",
          "type": "uint256"
        }
      ],
      "name": "LostMobiles",
      "outputs": [
        {
          "name": "id",
          "type": "uint256"
        },
        {
          "name": "IMEI",
          "type": "string"
        },
        {
          "name": "mobileNumber",
          "type": "string"
        },
        {
          "name": "location",
          "type": "string"
        }
      ],
      "payable": false,
      "stateMutability": "view",
      "type": "function",
      "signature": "0x2179582f"
    },
    {
      "constant": true,
      "inputs": [
        {
          "name": "",
          "type": "address"
        }
      ],
      "name": "users",
      "outputs": [
        {
          "name": "operator",
          "type": "string"
        },
        {
          "name": "weight",
          "type": "uint256"
        }
      ],
      "payable": false,
      "stateMutability": "view",
      "type": "function",
      "signature": "0xa87430ba"
    },
    {
      "constant": true,
      "inputs": [],
      "name": "gsm",
      "outputs": [
        {
          "name": "",
          "type": "address"
        }
      ],
      "payable": false,
      "stateMutability": "view",
      "type": "function",
      "signature": "0xf44320a0"
    },
    {
      "inputs": [],
      "payable": false,
      "stateMutability": "nonpayable",
      "type": "constructor",
      "signature": "constructor"
    },
    {
      "anonymous": false,
      "inputs": [
        {
          "indexed": false,
          "name": "id",
          "type": "uint256"
        },
        {
          "indexed": false,
          "name": "IMEI",
          "type": "string"
        },
        {
          "indexed": false,
          "name": "mobileNumber",
          "type": "string"
        },
        {
          "indexed": false,
          "name": "location",
          "type": "string"
        }
      ],
      "name": "LostMobileAdded",
      "type": "event",
      "signature": "0xc2e356eb6a47f10a76daed63eb9b2be65c4f317e49830cdfd6d3cd25e56d8b90"
    },
    {
      "anonymous": false,
      "inputs": [
        {
          "indexed": false,
          "name": "IMEI",
          "type": "string"
        }
      ],
      "name": "LostMobileRemoved",
      "type": "event",
      "signature": "0x32256ae2a7c3c2c828e1161971239d1c0422eaa3701a52a09dc7427caaf41dcc"
    },
    {
      "anonymous": false,
      "inputs": [
        {
          "indexed": false,
          "name": "id",
          "type": "uint256"
        },
        {
          "indexed": false,
          "name": "IMEI",
          "type": "string"
        },
        {
          "indexed": false,
          "name": "mobileNumber",
          "type": "string"
        },
        {
          "indexed": false,
          "name": "location",
          "type": "string"
        }
      ],
      "name": "LostMobileEditted",
      "type": "event",
      "signature": "0x662e55054ebef986a9dc9d0c41b3c8e14e2f4befed35c3477bb6dbf2bd667469"
    },
    {
      "constant": false,
      "inputs": [
        {
          "name": "addr",
          "type": "address"
        },
        {
          "name": "_company",
          "type": "string"
        }
      ],
      "name": "addOperator",
      "outputs": [],
      "payable": false,
      "stateMutability": "nonpayable",
      "type": "function",
      "signature": "0x2430df89"
    },
    {
      "constant": false,
      "inputs": [
        {
          "name": "addr",
          "type": "address"
        }
      ],
      "name": "removeOperator",
      "outputs": [],
      "payable": false,
      "stateMutability": "nonpayable",
      "type": "function",
      "signature": "0xac8a584a"
    },
    {
      "constant": false,
      "inputs": [
        {
          "name": "_IMEI",
          "type": "string"
        },
        {
          "name": "_mobileNumber",
          "type": "string"
        },
        {
          "name": "_location",
          "type": "string"
        }
      ],
      "name": "addLostMobile",
      "outputs": [],
      "payable": false,
      "stateMutability": "nonpayable",
      "type": "function",
      "signature": "0xe77df686"
    },
    {
      "constant": false,
      "inputs": [
        {
          "name": "_IMEI",
          "type": "string"
        }
      ],
      "name": "removeLostMobile",
      "outputs": [],
      "payable": false,
      "stateMutability": "nonpayable",
      "type": "function",
      "signature": "0x0c38d43e"
    },
    {
      "constant": false,
      "inputs": [
        {
          "name": "_IMEI",
          "type": "string"
        },
        {
          "name": "_mobileNumber",
          "type": "string"
        },
        {
          "name": "_location",
          "type": "string"
        }
      ],
      "name": "editLostMobile",
      "outputs": [],
      "payable": false,
      "stateMutability": "nonpayable",
      "type": "function",
      "signature": "0x9b4b21f1"
    }
  ],
  "bytecode": "0x6080604052600080553480156200001557600080fd5b5060038054600160a060020a03191633178082556040805180820182529283527f47534d00000000000000000000000000000000000000000000000000000000006020808501918252600160a060020a0393909316600090815260029093529120915162000085929190620000a2565b503360009081526002602081905260409091206001015562000147565b828054600181600116156101000203166002900490600052602060002090601f016020900481019282601f10620000e557805160ff191683800117855562000115565b8280016001018555821562000115579182015b8281111562000115578251825591602001919060010190620000f8565b506200012392915062000127565b5090565b6200014491905b808211156200012357600081556001016200012e565b90565b6112e480620001576000396000f3fe6080604052600436106100985763ffffffff7c01000000000000000000000000000000000000000000000000000000006000350416630c38d43e811461009d5780632163b756146100bf5780632179582f146100ea5780632430df891461011a5780639b4b21f11461013a578063a87430ba1461015a578063ac8a584a14610188578063e77df686146101a8578063f44320a0146101c8575b600080fd5b3480156100a957600080fd5b506100bd6100b8366004610f1f565b6101ea565b005b3480156100cb57600080fd5b506100d46103ca565b6040516100e191906111a4565b60405180910390f35b3480156100f657600080fd5b5061010a610105366004610fe8565b6103d0565b6040516100e194939291906111b2565b34801561012657600080fd5b506100bd610135366004610ecd565b610598565b34801561014657600080fd5b506100bd610155366004610f54565b61060f565b34801561016657600080fd5b5061017a610175366004610ea7565b610b3b565b6040516100e1929190611154565b34801561019457600080fd5b506100bd6101a3366004610ea7565b610bdc565b3480156101b457600080fd5b506100bd6101c3366004610f54565b610c39565b3480156101d457600080fd5b506101dd610d43565b6040516100e1919061112f565b33600090815260026020526040902060019081015410156102295760405160e560020a62461bcd02815260040161022090611174565b60405180910390fd5b60015b600054811161038457816040516020018082805190602001908083835b602083106102685780518252601f199092019160209182019101610249565b6001836020036101000a038019825116818451168082178552505050505050905001915050604051602081830303815290604052805190602001206001600083815260200190815260200160002060010160405160200180828054600181600116156101000203166002900480156103175780601f106102f5576101008083540402835291820191610317565b820191906000526020600020905b815481529060010190602001808311610303575b505091505060405160208183030381529060405280519060200120141561037c5760008181526001602081905260408220828155919061035990830182610d52565b610367600283016000610d52565b610375600383016000610d52565b5050610384565b60010161022c565b50600080546000190190556040517f32256ae2a7c3c2c828e1161971239d1c0422eaa3701a52a09dc7427caaf41dcc906103bf908390611143565b60405180910390a150565b60005481565b600160208181526000928352604092839020805481840180548651600296821615610100026000190190911695909504601f8101859004850286018501909652858552909491939290919083018282801561046c5780601f106104415761010080835404028352916020019161046c565b820191906000526020600020905b81548152906001019060200180831161044f57829003601f168201915b50505060028085018054604080516020601f60001961010060018716150201909416959095049283018590048502810185019091528181529596959450909250908301828280156104fe5780601f106104d3576101008083540402835291602001916104fe565b820191906000526020600020905b8154815290600101906020018083116104e157829003601f168201915b5050505060038301805460408051602060026001851615610100026000190190941693909304601f810184900484028201840190925281815294959493509083018282801561058e5780601f106105635761010080835404028352916020019161058e565b820191906000526020600020905b81548152906001019060200180831161057157829003601f168201915b5050505050905084565b600354600160a060020a031633146105c55760405160e560020a62461bcd02815260040161022090611184565b600160a060020a038216600090815260026020908152604090912082516105ee92840190610d99565b5050600160a060020a03166000908152600260205260409020600190810155565b33600090815260026020526040902060019081015410156106455760405160e560020a62461bcd02815260040161022090611174565b60015b6000548111610b3557836040516020018082805190602001908083835b602083106106845780518252601f199092019160209182019101610665565b6001836020036101000a038019825116818451168082178552505050505050905001915050604051602081830303815290604052805190602001206001600083815260200190815260200160002060010160405160200180828054600181600116156101000203166002900480156107335780601f10610711576101008083540402835291820191610733565b820191906000526020600020905b81548152906001019060200180831161071f575b5050915050604051602081830303815290604052805190602001201415610b2d57604080516020818101808452600080845293518794879493849392019182918083835b602083106107965780518252601f199092019160209182019101610777565b6001836020036101000a03801982511681845116808217855250505050505090500191505060405160208183030381529060405280519060200120866040516020018082805190602001908083835b602083106108045780518252601f1990920191602091820191016107e5565b6001836020036101000a0380198251168184511680821785525050505050509050019150506040516020818303038152906040528051906020012014156108e0576000848152600160208181526040928390206002908101805485519481161561010002600019011691909104601f81018390048302840183019094528383529192908301828280156108d85780601f106108ad576101008083540402835291602001916108d8565b820191906000526020600020905b8154815290600101906020018083116108bb57829003601f168201915b505050505092505b806040516020018082805190602001908083835b602083106109135780518252601f1990920191602091820191016108f4565b6001836020036101000a03801982511681845116808217855250505050505090500191505060405160208183030381529060405280519060200120856040516020018082805190602001908083835b602083106109815780518252601f199092019160209182019101610962565b6001836020036101000a038019825116818451168082178552505050505050905001915050604051602081830303815290604052805190602001201415610a5f5760008481526001602081815260409283902060030180548451600294821615610100026000190190911693909304601f8101839004830284018301909452838352919290830182828015610a575780601f10610a2c57610100808354040283529160200191610a57565b820191906000526020600020905b815481529060010190602001808311610a3a57829003601f168201915b505050505091505b6040805160808101825285815260208082018a81528284018790526060830186905260008881526001808452949020835181559051805193949193610aac93928501929190910190610d99565b5060408201518051610ac8916002840191602090910190610d99565b5060608201518051610ae4916003840191602090910190610d99565b509050507f662e55054ebef986a9dc9d0c41b3c8e14e2f4befed35c3477bb6dbf2bd66746984888585604051610b1d94939291906111b2565b60405180910390a1505050610b35565b600101610648565b50505050565b600260208181526000928352604092839020805484516001821615610100026000190190911693909304601f8101839004830284018301909452838352928391830182828015610bcc5780601f10610ba157610100808354040283529160200191610bcc565b820191906000526020600020905b815481529060010190602001808311610baf57829003601f168201915b5050505050908060010154905082565b600354600160a060020a03163314610c095760405160e560020a62461bcd02815260040161022090611184565b600160a060020a038116600090815260026020526040812090610c2c8282610d52565b6001820160009055505050565b3360009081526002602052604090206001908101541015610c6f5760405160e560020a62461bcd02815260040161022090611194565b600080546001908101808355604080516080810182528281526020808201898152828401899052606083018890529386528481529190942084518155915180519293610cc393908501929190910190610d99565b5060408201518051610cdf916002840191602090910190610d99565b5060608201518051610cfb916003840191602090910190610d99565b509050507fc2e356eb6a47f10a76daed63eb9b2be65c4f317e49830cdfd6d3cd25e56d8b90600054848484604051610d3694939291906111b2565b60405180910390a1505050565b600354600160a060020a031681565b50805460018160011615610100020316600290046000825580601f10610d785750610d96565b601f016020900490600052602060002090810190610d969190610e17565b50565b828054600181600116156101000203166002900490600052602060002090601f016020900481019282601f10610dda57805160ff1916838001178555610e07565b82800160010185558215610e07579182015b82811115610e07578251825591602001919060010190610dec565b50610e13929150610e17565b5090565b610e3191905b80821115610e135760008155600101610e1d565b90565b6000610e408235611257565b9392505050565b6000601f82018313610e5857600080fd5b8135610e6b610e668261122b565b611204565b91508082526020830160208301858383011115610e8757600080fd5b610e92838284611268565b50505092915050565b6000610e408235610e31565b600060208284031215610eb957600080fd5b6000610ec58484610e34565b949350505050565b60008060408385031215610ee057600080fd5b6000610eec8585610e34565b925050602083013567ffffffffffffffff811115610f0957600080fd5b610f1585828601610e47565b9150509250929050565b600060208284031215610f3157600080fd5b813567ffffffffffffffff811115610f4857600080fd5b610ec584828501610e47565b600080600060608486031215610f6957600080fd5b833567ffffffffffffffff811115610f8057600080fd5b610f8c86828701610e47565b935050602084013567ffffffffffffffff811115610fa957600080fd5b610fb586828701610e47565b925050604084013567ffffffffffffffff811115610fd257600080fd5b610fde86828701610e47565b9150509250925092565b600060208284031215610ffa57600080fd5b6000610ec58484610e9b565b61100f81611257565b82525050565b600061102082611253565b808452611034816020860160208601611274565b61103d816112a0565b9093016020019392505050565b602e81527f4f6e6c79204f70657261746f727320616e642047534d2063616e2072656d6f7660208201527f65204c6f7374204d6f62696c6573000000000000000000000000000000000000604082015260600190565b600b81527f4d7573742062652047534d000000000000000000000000000000000000000000602082015260400190565b602381527f4f6e6c79204f70657261746f72732063616e20616464204c6f7374204d6f626960208201527f6c65730000000000000000000000000000000000000000000000000000000000604082015260600190565b61100f81610e31565b6020810161113d8284611006565b92915050565b60208082528101610e408184611015565b604080825281016111658185611015565b9050610e406020830184611126565b6020808252810161113d8161104a565b6020808252810161113d816110a0565b6020808252810161113d816110d0565b6020810161113d8284611126565b608081016111c08287611126565b81810360208301526111d28186611015565b905081810360408301526111e68185611015565b905081810360608301526111fa8184611015565b9695505050505050565b60405181810167ffffffffffffffff8111828210171561122357600080fd5b604052919050565b600067ffffffffffffffff82111561124257600080fd5b506020601f91909101601f19160190565b5190565b6000600160a060020a03821661113d565b82818337506000910152565b60005b8381101561128f578181015183820152602001611277565b83811115610b355750506000910152565b601f01601f19169056fea265627a7a72305820545aa4f29b4b0099009a7233122fcd600ad9ac94ef610d2b3e7688978035d2556c6578706572696d656e74616cf50037",
  "source": "pragma solidity ^0.5.0;\r\npragma experimental ABIEncoderV2; //typeerror ke liye tha\r\n\r\ncontract LostMobileList {\r\n    uint public lostMobileCount = 0;\r\n\r\n    struct LostMobile {\r\n        uint id;\r\n        string IMEI;\r\n        string mobileNumber;\r\n        string location;\r\n    }\r\n\r\n    mapping(uint => LostMobile) public LostMobiles;\r\n\r\n    event LostMobileAdded(\r\n        uint id,\r\n        string IMEI,\r\n        string mobileNumber,\r\n        string location\r\n    );\r\n\r\n    event LostMobileRemoved(string IMEI);\r\n\r\n    event LostMobileEditted(\r\n        uint id,\r\n        string IMEI,\r\n        string mobileNumber,\r\n        string location\r\n    );\r\n    //will optimise subha\r\n    struct Operator {\r\n        string operator;\r\n        uint weight; //1: edit, add, delete, 2: GSM\r\n    }\r\n    mapping(address => Operator) public users; //map for address and users\r\n    address public gsm;\r\n\r\n    constructor() public {\r\n        gsm = msg.sender;\r\n        users[gsm].operator='GSM';\r\n        users[msg.sender].weight = 2;\r\n    }\r\n\r\n    function addOperator(address addr, string memory _company) public {\r\n        require(msg.sender == gsm, \"Must be GSM\");\r\n        users[addr].operator = _company;\r\n        users[addr].weight = 1;\r\n    }\r\n\r\n    function removeOperator(address addr) public {\r\n        require(msg.sender == gsm, \"Must be GSM\");\r\n        delete (users[addr]);\r\n    }\r\n\r\n    function addLostMobile(\r\n        string memory _IMEI,\r\n        string memory _mobileNumber,\r\n        string memory _location\r\n    ) public {\r\n        require(\r\n            users[msg.sender].weight >= 1,\r\n            \"Only Operators can add Lost Mobiles\"\r\n        );\r\n        lostMobileCount++;\r\n        LostMobiles[lostMobileCount] = LostMobile(\r\n            lostMobileCount,\r\n            _IMEI,\r\n            _mobileNumber,\r\n            _location\r\n        );\r\n        emit LostMobileAdded(lostMobileCount, _IMEI, _mobileNumber, _location);\r\n    }\r\n\r\n    function removeLostMobile(string memory _IMEI) public {\r\n        require(\r\n            users[msg.sender].weight >= 1,\r\n            \"Only Operators and GSM can remove Lost Mobiles\"\r\n        );\r\n        for (uint i = 1; i <= lostMobileCount; i++) {\r\n            if (\r\n                keccak256(abi.encodePacked(LostMobiles[i].IMEI)) ==\r\n                (keccak256(abi.encodePacked(_IMEI)))\r\n            ) {\r\n                delete LostMobiles[i];\r\n                break;\r\n            }\r\n        }\r\n        lostMobileCount--;\r\n        emit LostMobileRemoved(_IMEI);\r\n    }\r\n\r\n    function editLostMobile(\r\n        string memory _IMEI,\r\n        string memory _mobileNumber,\r\n        string memory _location\r\n    ) public {\r\n        require(\r\n            users[msg.sender].weight >= 1,\r\n            \"Only Operators and GSM can remove Lost Mobiles\"\r\n        );\r\n        for (uint i = 1; i <= lostMobileCount; i++) {\r\n            if (\r\n                keccak256(abi.encodePacked(LostMobiles[i].IMEI)) ==\r\n                (keccak256(abi.encodePacked(_IMEI)))\r\n            ) {\r\n                string memory mobNum = _mobileNumber;\r\n                string memory loc = _location;\r\n                string memory empty = \"\";\r\n\r\n                if (\r\n                    keccak256(abi.encodePacked(_mobileNumber)) ==\r\n                    (keccak256(abi.encodePacked(empty)))\r\n                ) {\r\n                    mobNum = LostMobiles[i].mobileNumber;\r\n                }\r\n\r\n                if (\r\n                    keccak256(abi.encodePacked(_location)) ==\r\n                    (keccak256(abi.encodePacked(empty)))\r\n                ) {\r\n                    loc = LostMobiles[i].location;\r\n                }\r\n\r\n                LostMobiles[i] = LostMobile(i, _IMEI, mobNum, loc);\r\n                emit LostMobileEditted(i, _IMEI, mobNum, loc);\r\n                break;\r\n            }\r\n        }\r\n    }\r\n}\r\n",
  "sourcePath": "E:/BITS/4.1 Psenti Sem ;)/IoT/iot-mobile-theft/contracts/LostMobileList.sol",
  "compiler": {
    "name": "solc",
    "version": "0.5.0+commit.1d4f565a.Emscripten.clang"
  },
  "schemaVersion": "3.0.1",
  "updatedAt": "2022-12-10T15:34:04.013Z",
  "devdoc": {
    "methods": {}
  },
  "userdoc": {
    "methods": {}
  }
}