{
  "contractName": "LostMobileList",
  "abi": [
    {
      "inputs": [],
      "payable": false,
      "stateMutability": "nonpayable",
      "type": "constructor"
    },
    {
      "anonymous": false,
      "inputs": [
        {
          "indexed": false,
          "internalType": "uint256",
          "name": "id",
          "type": "uint256"
        },
        {
          "indexed": false,
          "internalType": "string",
          "name": "IMEI",
          "type": "string"
        },
        {
          "indexed": false,
          "internalType": "string",
          "name": "mobileNumber",
          "type": "string"
        },
        {
          "indexed": false,
          "internalType": "string",
          "name": "location",
          "type": "string"
        }
      ],
      "name": "LostMobileAdded",
      "type": "event"
    },
    {
      "anonymous": false,
      "inputs": [
        {
          "indexed": false,
          "internalType": "uint256",
          "name": "id",
          "type": "uint256"
        },
        {
          "indexed": false,
          "internalType": "string",
          "name": "IMEI",
          "type": "string"
        },
        {
          "indexed": false,
          "internalType": "string",
          "name": "mobileNumber",
          "type": "string"
        },
        {
          "indexed": false,
          "internalType": "string",
          "name": "location",
          "type": "string"
        }
      ],
      "name": "LostMobileEditted",
      "type": "event"
    },
    {
      "anonymous": false,
      "inputs": [
        {
          "indexed": false,
          "internalType": "string",
          "name": "IMEI",
          "type": "string"
        }
      ],
      "name": "LostMobileRemoved",
      "type": "event"
    },
    {
      "constant": true,
      "inputs": [
        {
          "internalType": "uint256",
          "name": "",
          "type": "uint256"
        }
      ],
      "name": "LostMobiles",
      "outputs": [
        {
          "internalType": "uint256",
          "name": "id",
          "type": "uint256"
        },
        {
          "internalType": "string",
          "name": "IMEI",
          "type": "string"
        },
        {
          "internalType": "string",
          "name": "mobileNumber",
          "type": "string"
        },
        {
          "internalType": "string",
          "name": "location",
          "type": "string"
        }
      ],
      "payable": false,
      "stateMutability": "view",
      "type": "function"
    },
    {
      "constant": true,
      "inputs": [],
      "name": "gsm",
      "outputs": [
        {
          "internalType": "address",
          "name": "",
          "type": "address"
        }
      ],
      "payable": false,
      "stateMutability": "view",
      "type": "function"
    },
    {
      "constant": true,
      "inputs": [],
      "name": "lostMobileCount",
      "outputs": [
        {
          "internalType": "uint256",
          "name": "",
          "type": "uint256"
        }
      ],
      "payable": false,
      "stateMutability": "view",
      "type": "function"
    },
    {
      "constant": true,
      "inputs": [
        {
          "internalType": "address",
          "name": "",
          "type": "address"
        }
      ],
      "name": "users",
      "outputs": [
        {
          "internalType": "string",
          "name": "operator",
          "type": "string"
        },
        {
          "internalType": "uint256",
          "name": "weight",
          "type": "uint256"
        }
      ],
      "payable": false,
      "stateMutability": "view",
      "type": "function"
    },
    {
      "constant": false,
      "inputs": [
        {
          "internalType": "address",
          "name": "addr",
          "type": "address"
        },
        {
          "internalType": "string",
          "name": "_company",
          "type": "string"
        }
      ],
      "name": "addOperator",
      "outputs": [],
      "payable": false,
      "stateMutability": "nonpayable",
      "type": "function"
    },
    {
      "constant": false,
      "inputs": [
        {
          "internalType": "address",
          "name": "addr",
          "type": "address"
        }
      ],
      "name": "removeOperator",
      "outputs": [],
      "payable": false,
      "stateMutability": "nonpayable",
      "type": "function"
    },
    {
      "constant": false,
      "inputs": [
        {
          "internalType": "string",
          "name": "_IMEI",
          "type": "string"
        },
        {
          "internalType": "string",
          "name": "_mobileNumber",
          "type": "string"
        },
        {
          "internalType": "string",
          "name": "_location",
          "type": "string"
        }
      ],
      "name": "addLostMobile",
      "outputs": [],
      "payable": false,
      "stateMutability": "nonpayable",
      "type": "function"
    },
    {
      "constant": false,
      "inputs": [
        {
          "internalType": "string",
          "name": "_IMEI",
          "type": "string"
        }
      ],
      "name": "removeLostMobile",
      "outputs": [],
      "payable": false,
      "stateMutability": "nonpayable",
      "type": "function"
    },
    {
      "constant": false,
      "inputs": [
        {
          "internalType": "string",
          "name": "_IMEI",
          "type": "string"
        },
        {
          "internalType": "string",
          "name": "_mobileNumber",
          "type": "string"
        },
        {
          "internalType": "string",
          "name": "_location",
          "type": "string"
        }
      ],
      "name": "editLostMobile",
      "outputs": [],
      "payable": false,
      "stateMutability": "nonpayable",
      "type": "function"
    }
  ],
  "bytecode": "0x60806040526000805534801561001457600080fd5b50600380546001600160a01b03191633178082556040805180820182529283526247534d60e81b60208085019182526001600160a01b03939093166000908152600290935291209151610068929190610084565b503360009081526002602081905260409091206001015561011f565b828054600181600116156101000203166002900490600052602060002090601f016020900481019282601f106100c557805160ff19168380011785556100f2565b828001600101855582156100f2579182015b828111156100f25782518255916020019190600101906100d7565b506100fe929150610102565b5090565b61011c91905b808211156100fe5760008155600101610108565b90565b6110fc806200012f6000396000f3fe608060405234801561001057600080fd5b50600436106100935760003560e01c80639b4b21f1116100665780639b4b21f114610101578063a87430ba14610114578063ac8a584a14610135578063e77df68614610148578063f44320a01461015b57610093565b80630c38d43e146100985780632163b756146100ad5780632179582f146100cb5780632430df89146100ee575b600080fd5b6100ab6100a6366004610c45565b610170565b005b6100b56102b3565b6040516100c29190610f7c565b60405180910390f35b6100de6100d9366004610d0e565b6102b9565b6040516100c29493929190610f8a565b6100ab6100fc366004610bf3565b610481565b6100ab61010f366004610c7a565b6104f5565b610127610122366004610bcd565b61086a565b6040516100c2929190610f2c565b6100ab610143366004610bcd565b61090b565b6100ab610156366004610c7a565b610965565b610163610a6c565b6040516100c29190610f0d565b33600090815260026020526040902060019081015410156101ac5760405162461bcd60e51b81526004016101a390610f4c565b60405180910390fd5b60015b600054811161026d57816040516020016101c99190610eee565b60405160208183030381529060405280519060200120600160008381526020019081526020016000206001016040516020016102059190610f01565b6040516020818303038152906040528051906020012014156102655760008181526001602081905260408220828155919061024290830182610a7b565b610250600283016000610a7b565b61025e600383016000610a7b565b505061026d565b6001016101af565b50600080546000190190556040517f32256ae2a7c3c2c828e1161971239d1c0422eaa3701a52a09dc7427caaf41dcc906102a8908390610f1b565b60405180910390a150565b60005481565b600160208181526000928352604092839020805481840180548651600296821615610100026000190190911695909504601f810185900485028601850190965285855290949193929091908301828280156103555780601f1061032a57610100808354040283529160200191610355565b820191906000526020600020905b81548152906001019060200180831161033857829003601f168201915b50505060028085018054604080516020601f60001961010060018716150201909416959095049283018590048502810185019091528181529596959450909250908301828280156103e75780601f106103bc576101008083540402835291602001916103e7565b820191906000526020600020905b8154815290600101906020018083116103ca57829003601f168201915b5050505060038301805460408051602060026001851615610100026000190190941693909304601f81018490048402820184019092528181529495949350908301828280156104775780601f1061044c57610100808354040283529160200191610477565b820191906000526020600020905b81548152906001019060200180831161045a57829003601f168201915b5050505050905084565b6003546001600160a01b031633146104ab5760405162461bcd60e51b81526004016101a390610f5c565b6001600160a01b038216600090815260026020908152604090912082516104d492840190610ac2565b50506001600160a01b03166000908152600260205260409020600190810155565b33600090815260026020526040902060019081015410156105285760405162461bcd60e51b81526004016101a390610f4c565b60015b600054811161086457836040516020016105459190610eee565b60405160208183030381529060405280519060200120600160008381526020019081526020016000206001016040516020016105819190610f01565b60405160208183030381529060405280519060200120141561085c57604080516020808201835260008252915185928592916105bf91839101610eee565b60405160208183030381529060405280519060200120866040516020016105e69190610eee565b60405160208183030381529060405280519060200120141561069d576000848152600160208181526040928390206002908101805485519481161561010002600019011691909104601f81018390048302840183019094528383529192908301828280156106955780601f1061066a57610100808354040283529160200191610695565b820191906000526020600020905b81548152906001019060200180831161067857829003601f168201915b505050505092505b806040516020016106ae9190610eee565b60405160208183030381529060405280519060200120856040516020016106d59190610eee565b60405160208183030381529060405280519060200120141561078e5760008481526001602081815260409283902060030180548451600294821615610100026000190190911693909304601f81018390048302840183019094528383529192908301828280156107865780601f1061075b57610100808354040283529160200191610786565b820191906000526020600020905b81548152906001019060200180831161076957829003601f168201915b505050505091505b6040805160808101825285815260208082018a815282840187905260608301869052600088815260018084529490208351815590518051939491936107db93928501929190910190610ac2565b50604082015180516107f7916002840191602090910190610ac2565b5060608201518051610813916003840191602090910190610ac2565b509050507f662e55054ebef986a9dc9d0c41b3c8e14e2f4befed35c3477bb6dbf2bd6674698488858560405161084c9493929190610f8a565b60405180910390a1505050610864565b60010161052b565b50505050565b600260208181526000928352604092839020805484516001821615610100026000190190911693909304601f81018390048302840183019094528383529283918301828280156108fb5780601f106108d0576101008083540402835291602001916108fb565b820191906000526020600020905b8154815290600101906020018083116108de57829003601f168201915b5050505050908060010154905082565b6003546001600160a01b031633146109355760405162461bcd60e51b81526004016101a390610f5c565b6001600160a01b0381166000908152600260205260408120906109588282610a7b565b6001820160009055505050565b33600090815260026020526040902060019081015410156109985760405162461bcd60e51b81526004016101a390610f6c565b6000805460019081018083556040805160808101825282815260208082018981528284018990526060830188905293865284815291909420845181559151805192936109ec93908501929190910190610ac2565b5060408201518051610a08916002840191602090910190610ac2565b5060608201518051610a24916003840191602090910190610ac2565b509050507fc2e356eb6a47f10a76daed63eb9b2be65c4f317e49830cdfd6d3cd25e56d8b90600054848484604051610a5f9493929190610f8a565b60405180910390a1505050565b6003546001600160a01b031681565b50805460018160011615610100020316600290046000825580601f10610aa15750610abf565b601f016020900490600052602060002090810190610abf9190610b40565b50565b828054600181600116156101000203166002900490600052602060002090601f016020900481019282601f10610b0357805160ff1916838001178555610b30565b82800160010185558215610b30579182015b82811115610b30578251825591602001919060010190610b15565b50610b3c929150610b40565b5090565b610b5a91905b80821115610b3c5760008155600101610b46565b90565b8035610b688161109c565b92915050565b600082601f830112610b7f57600080fd5b8135610b92610b8d82611003565b610fdc565b91508082526020830160208301858383011115610bae57600080fd5b610bb983828461105a565b50505092915050565b8035610b68816110b0565b600060208284031215610bdf57600080fd5b6000610beb8484610b5d565b949350505050565b60008060408385031215610c0657600080fd5b6000610c128585610b5d565b925050602083013567ffffffffffffffff811115610c2f57600080fd5b610c3b85828601610b6e565b9150509250929050565b600060208284031215610c5757600080fd5b813567ffffffffffffffff811115610c6e57600080fd5b610beb84828501610b6e565b600080600060608486031215610c8f57600080fd5b833567ffffffffffffffff811115610ca657600080fd5b610cb286828701610b6e565b935050602084013567ffffffffffffffff811115610ccf57600080fd5b610cdb86828701610b6e565b925050604084013567ffffffffffffffff811115610cf857600080fd5b610d0486828701610b6e565b9150509250925092565b600060208284031215610d2057600080fd5b6000610beb8484610bc2565b610d3581611049565b82525050565b6000610d4682611037565b610d50818561103b565b9350610d60818560208601611066565b610d6981611092565b9093019392505050565b6000610d7e82611037565b610d888185611044565b9350610d98818560208601611066565b9290920192915050565b600081546001811660008114610dbf5760018114610de257610e21565b607f6002830416610dd08187611044565b60ff1984168152955085019250610e21565b60028204610df08187611044565b9550610dfb8561102b565b60005b82811015610e1a57815488820152600190910190602001610dfe565b5050850192505b505092915050565b6000610e36602e8361103b565b7f4f6e6c79204f70657261746f727320616e642047534d2063616e2072656d6f7681526d65204c6f7374204d6f62696c657360901b602082015260400192915050565b6000610e86600b8361103b565b6a4d7573742062652047534d60a81b815260200192915050565b6000610ead60238361103b565b7f4f6e6c79204f70657261746f72732063616e20616464204c6f7374204d6f62698152626c657360e81b602082015260400192915050565b610d3581610b5a565b6000610efa8284610d73565b9392505050565b6000610efa8284610da2565b60208101610b688284610d2c565b60208082528101610efa8184610d3b565b60408082528101610f3d8185610d3b565b9050610efa6020830184610ee5565b60208082528101610b6881610e29565b60208082528101610b6881610e79565b60208082528101610b6881610ea0565b60208101610b688284610ee5565b60808101610f988287610ee5565b8181036020830152610faa8186610d3b565b90508181036040830152610fbe8185610d3b565b90508181036060830152610fd28184610d3b565b9695505050505050565b60405181810167ffffffffffffffff81118282101715610ffb57600080fd5b604052919050565b600067ffffffffffffffff82111561101a57600080fd5b506020601f91909101601f19160190565b60009081526020902090565b5190565b90815260200190565b919050565b60006001600160a01b038216610b68565b82818337506000910152565b60005b83811015611081578181015183820152602001611069565b838111156108645750506000910152565b601f01601f191690565b6110a581611049565b8114610abf57600080fd5b6110a581610b5a56fea365627a7a7231582088f0ac6a2a1962cdbc4471246dae65206324005e0a61796ae3a3d0bb6209c33c6c6578706572696d656e74616cf564736f6c63430005100040",
  "source": "pragma solidity ^0.5.0;\r\npragma experimental ABIEncoderV2; //typeerror ke liye tha\r\n\r\ncontract LostMobileList {\r\n    uint public lostMobileCount = 0;\r\n\r\n    struct LostMobile {\r\n        uint id;\r\n        string IMEI;\r\n        string mobileNumber;\r\n        string location;\r\n    }\r\n\r\n    mapping(uint => LostMobile) public LostMobiles;\r\n\r\n    event LostMobileAdded(\r\n        uint id,\r\n        string IMEI,\r\n        string mobileNumber,\r\n        string location\r\n    );\r\n\r\n    event LostMobileRemoved(string IMEI);\r\n\r\n    event LostMobileEditted(\r\n        uint id,\r\n        string IMEI,\r\n        string mobileNumber,\r\n        string location\r\n    );\r\n    //will optimise subha\r\n    struct Operator {\r\n        string operator;\r\n        uint weight; //1: edit, add, delete, 2: GSM\r\n    }\r\n    mapping(address => Operator) public users; //map for address and users\r\n    address public gsm;\r\n\r\n    constructor() public {\r\n        gsm = msg.sender;\r\n        users[gsm].operator='GSM';\r\n        users[msg.sender].weight = 2;\r\n    }\r\n\r\n    function addOperator(address addr, string memory _company) public {\r\n        require(msg.sender == gsm, \"Must be GSM\");\r\n        users[addr].operator = _company;\r\n        users[addr].weight = 1;\r\n    }\r\n\r\n    function removeOperator(address addr) public {\r\n        require(msg.sender == gsm, \"Must be GSM\");\r\n        delete (users[addr]);\r\n    }\r\n\r\n    function addLostMobile(\r\n        string memory _IMEI,\r\n        string memory _mobileNumber,\r\n        string memory _location\r\n    ) public {\r\n        require(\r\n            users[msg.sender].weight >= 1,\r\n            \"Only Operators can add Lost Mobiles\"\r\n        );\r\n        lostMobileCount++;\r\n        LostMobiles[lostMobileCount] = LostMobile(\r\n            lostMobileCount,\r\n            _IMEI,\r\n            _mobileNumber,\r\n            _location\r\n        );\r\n        emit LostMobileAdded(lostMobileCount, _IMEI, _mobileNumber, _location);\r\n    }\r\n\r\n    function removeLostMobile(string memory _IMEI) public {\r\n        require(\r\n            users[msg.sender].weight >= 1,\r\n            \"Only Operators and GSM can remove Lost Mobiles\"\r\n        );\r\n        for (uint i = 1; i <= lostMobileCount; i++) {\r\n            if (\r\n                keccak256(abi.encodePacked(LostMobiles[i].IMEI)) ==\r\n                (keccak256(abi.encodePacked(_IMEI)))\r\n            ) {\r\n                delete LostMobiles[i];\r\n                break;\r\n            }\r\n        }\r\n        lostMobileCount--;\r\n        emit LostMobileRemoved(_IMEI);\r\n    }\r\n\r\n    function editLostMobile(\r\n        string memory _IMEI,\r\n        string memory _mobileNumber,\r\n        string memory _location\r\n    ) public {\r\n        require(\r\n            users[msg.sender].weight >= 1,\r\n            \"Only Operators and GSM can remove Lost Mobiles\"\r\n        );\r\n        for (uint i = 1; i <= lostMobileCount; i++) {\r\n            if (\r\n                keccak256(abi.encodePacked(LostMobiles[i].IMEI)) ==\r\n                (keccak256(abi.encodePacked(_IMEI)))\r\n            ) {\r\n                string memory mobNum = _mobileNumber;\r\n                string memory loc = _location;\r\n                string memory empty = \"\";\r\n\r\n                if (\r\n                    keccak256(abi.encodePacked(_mobileNumber)) ==\r\n                    (keccak256(abi.encodePacked(empty)))\r\n                ) {\r\n                    mobNum = LostMobiles[i].mobileNumber;\r\n                }\r\n\r\n                if (\r\n                    keccak256(abi.encodePacked(_location)) ==\r\n                    (keccak256(abi.encodePacked(empty)))\r\n                ) {\r\n                    loc = LostMobiles[i].location;\r\n                }\r\n\r\n                LostMobiles[i] = LostMobile(i, _IMEI, mobNum, loc);\r\n                emit LostMobileEditted(i, _IMEI, mobNum, loc);\r\n                break;\r\n            }\r\n        }\r\n    }\r\n}\r\n",
  "sourcePath": "C:\\Users\\Pratik Mohan\\Desktop\\projects\\iot-project\\iot-mobile-theft-detection\\contracts\\LostMobileList.sol",
  "compiler": {
    "name": "solc",
    "version": "0.5.16+commit.9c3226ce.Emscripten.clang"
  },
  "schemaVersion": "3.4.11",
  "updatedAt": "2022-12-10T13:26:57.933Z",
  "devdoc": {
    "methods": {}
  },
  "userdoc": {
    "methods": {}
  }
}