{
  "contractName": "LostMobileList",
  "abi": [
    {
      "inputs": [],
      "payable": false,
      "stateMutability": "nonpayable",
      "type": "constructor"
    },
    {
      "anonymous": false,
      "inputs": [
        {
          "indexed": false,
          "internalType": "uint256",
          "name": "id",
          "type": "uint256"
        },
        {
          "indexed": false,
          "internalType": "string",
          "name": "IMEI",
          "type": "string"
        },
        {
          "indexed": false,
          "internalType": "string",
          "name": "mobileNumber",
          "type": "string"
        },
        {
          "indexed": false,
          "internalType": "string",
          "name": "location",
          "type": "string"
        }
      ],
      "name": "LostMobileAdded",
      "type": "event"
    },
    {
      "anonymous": false,
      "inputs": [
        {
          "indexed": false,
          "internalType": "uint256",
          "name": "id",
          "type": "uint256"
        },
        {
          "indexed": false,
          "internalType": "string",
          "name": "IMEI",
          "type": "string"
        },
        {
          "indexed": false,
          "internalType": "string",
          "name": "mobileNumber",
          "type": "string"
        },
        {
          "indexed": false,
          "internalType": "string",
          "name": "location",
          "type": "string"
        }
      ],
      "name": "LostMobileEditted",
      "type": "event"
    },
    {
      "anonymous": false,
      "inputs": [
        {
          "indexed": false,
          "internalType": "string",
          "name": "IMEI",
          "type": "string"
        }
      ],
      "name": "LostMobileRemoved",
      "type": "event"
    },
    {
      "constant": true,
      "inputs": [
        {
          "internalType": "uint256",
          "name": "",
          "type": "uint256"
        }
      ],
      "name": "LostMobiles",
      "outputs": [
        {
          "internalType": "uint256",
          "name": "id",
          "type": "uint256"
        },
        {
          "internalType": "string",
          "name": "IMEI",
          "type": "string"
        },
        {
          "internalType": "string",
          "name": "mobileNumber",
          "type": "string"
        },
        {
          "internalType": "string",
          "name": "location",
          "type": "string"
        }
      ],
      "payable": false,
      "stateMutability": "view",
      "type": "function"
    },
    {
      "constant": true,
      "inputs": [],
      "name": "gsm",
      "outputs": [
        {
          "internalType": "address",
          "name": "",
          "type": "address"
        }
      ],
      "payable": false,
      "stateMutability": "view",
      "type": "function"
    },
    {
      "constant": true,
      "inputs": [],
      "name": "lostMobileCount",
      "outputs": [
        {
          "internalType": "uint256",
          "name": "",
          "type": "uint256"
        }
      ],
      "payable": false,
      "stateMutability": "view",
      "type": "function"
    },
    {
      "constant": true,
      "inputs": [
        {
          "internalType": "address",
          "name": "",
          "type": "address"
        }
      ],
      "name": "users",
      "outputs": [
        {
          "internalType": "string",
          "name": "operator",
          "type": "string"
        },
        {
          "internalType": "uint256",
          "name": "weight",
          "type": "uint256"
        }
      ],
      "payable": false,
      "stateMutability": "view",
      "type": "function"
    },
    {
      "constant": false,
      "inputs": [
        {
          "internalType": "address",
          "name": "addr",
          "type": "address"
        },
        {
          "components": [
            {
              "internalType": "string",
              "name": "operator",
              "type": "string"
            },
            {
              "internalType": "uint256",
              "name": "weight",
              "type": "uint256"
            }
          ],
          "internalType": "struct LostMobileList.Operator",
          "name": "company",
          "type": "tuple"
        }
      ],
      "name": "addOperator",
      "outputs": [],
      "payable": false,
      "stateMutability": "nonpayable",
      "type": "function"
    },
    {
      "constant": false,
      "inputs": [
        {
          "internalType": "address",
          "name": "addr",
          "type": "address"
        },
        {
          "components": [
            {
              "internalType": "string",
              "name": "operator",
              "type": "string"
            },
            {
              "internalType": "uint256",
              "name": "weight",
              "type": "uint256"
            }
          ],
          "internalType": "struct LostMobileList.Operator",
          "name": "company",
          "type": "tuple"
        }
      ],
      "name": "removeOperator",
      "outputs": [],
      "payable": false,
      "stateMutability": "nonpayable",
      "type": "function"
    },
    {
      "constant": false,
      "inputs": [
        {
          "internalType": "string",
          "name": "_IMEI",
          "type": "string"
        },
        {
          "internalType": "string",
          "name": "_mobileNumber",
          "type": "string"
        },
        {
          "internalType": "string",
          "name": "_location",
          "type": "string"
        }
      ],
      "name": "addLostMobile",
      "outputs": [],
      "payable": false,
      "stateMutability": "nonpayable",
      "type": "function"
    },
    {
      "constant": false,
      "inputs": [
        {
          "internalType": "string",
          "name": "_IMEI",
          "type": "string"
        }
      ],
      "name": "removeLostMobile",
      "outputs": [],
      "payable": false,
      "stateMutability": "nonpayable",
      "type": "function"
    }
  ],
  "bytecode": "0x60806040526000805534801561001457600080fd5b50600380546001600160a01b03191633908117909155600090815260026020819052604090912060010155610ca88061004e6000396000f3fe608060405234801561001057600080fd5b50600436106100885760003560e01c8063e6b1a2fb1161005b578063e6b1a2fb14610104578063e77df68614610117578063f44320a01461012a578063f70ce4c61461013f57610088565b80630c38d43e1461008d5780632163b756146100a25780632179582f146100c0578063a87430ba146100e3575b600080fd5b6100a061009b3660046108a2565b610152565b005b6100aa610259565b6040516100b79190610b24565b60405180910390f35b6100d36100ce36600461096b565b61025f565b6040516100b79493929190610b32565b6100f66100f136600461082a565b610427565b6040516100b7929190610af4565b6100a0610112366004610850565b6104c8565b6100a06101253660046108d7565b61052c565b610132610600565b6040516100b79190610ad5565b6100a061014d366004610850565b61060f565b60015b6000548111610213578160405160200161016f9190610ab6565b60405160208183030381529060405280519060200120600160008381526020019081526020016000206001016040516020016101ab9190610ac9565b60405160208183030381529060405280519060200120141561020b576000818152600160208190526040822082815591906101e89083018261067a565b6101f660028301600061067a565b61020460038301600061067a565b5050610213565b600101610155565b50600080546000190190556040517f32256ae2a7c3c2c828e1161971239d1c0422eaa3701a52a09dc7427caaf41dcc9061024e908390610ae3565b60405180910390a150565b60005481565b600160208181526000928352604092839020805481840180548651600296821615610100026000190190911695909504601f810185900485028601850190965285855290949193929091908301828280156102fb5780601f106102d0576101008083540402835291602001916102fb565b820191906000526020600020905b8154815290600101906020018083116102de57829003601f168201915b50505060028085018054604080516020601f600019610100600187161502019094169590950492830185900485028101850190915281815295969594509092509083018282801561038d5780601f106103625761010080835404028352916020019161038d565b820191906000526020600020905b81548152906001019060200180831161037057829003601f168201915b5050505060038301805460408051602060026001851615610100026000190190941693909304601f810184900484028201840190925281815294959493509083018282801561041d5780601f106103f25761010080835404028352916020019161041d565b820191906000526020600020905b81548152906001019060200180831161040057829003601f168201915b5050505050905084565b600260208181526000928352604092839020805484516001821615610100026000190190911693909304601f81018390048302840183019094528383529283918301828280156104b85780601f1061048d576101008083540402835291602001916104b8565b820191906000526020600020905b81548152906001019060200180831161049b57829003601f168201915b5050505050908060010154905082565b6003546001600160a01b031633146104fb5760405162461bcd60e51b81526004016104f290610b14565b60405180910390fd5b6001600160a01b03821660009081526002602052604081209061051e828261067a565b600182016000905550505050565b600080546001908101808355604080516080810182528281526020808201898152828401899052606083018890529386528481529190942084518155915180519293610580939085019291909101906106c1565b506040820151805161059c9160028401916020909101906106c1565b50606082015180516105b89160038401916020909101906106c1565b509050507fc2e356eb6a47f10a76daed63eb9b2be65c4f317e49830cdfd6d3cd25e56d8b906000548484846040516105f39493929190610b32565b60405180910390a1505050565b6003546001600160a01b031681565b6003546001600160a01b031633146106395760405162461bcd60e51b81526004016104f290610b14565b6001600160a01b03821660009081526002602090815260409091208251805184936106689284929101906106c1565b50602082015181600101559050505050565b50805460018160011615610100020316600290046000825580601f106106a057506106be565b601f0160209004906000526020600020908101906106be919061073f565b50565b828054600181600116156101000203166002900490600052602060002090601f016020900481019282601f1061070257805160ff191683800117855561072f565b8280016001018555821561072f579182015b8281111561072f578251825591602001919060010190610714565b5061073b92915061073f565b5090565b61075991905b8082111561073b5760008155600101610745565b90565b803561076781610c48565b92915050565b600082601f83011261077e57600080fd5b813561079161078c82610bab565b610b84565b915080825260208301602083018583830111156107ad57600080fd5b6107b8838284610c02565b50505092915050565b6000604082840312156107d357600080fd5b6107dd6040610b84565b9050813567ffffffffffffffff8111156107f657600080fd5b6108028482850161076d565b82525060206108138484830161081f565b60208301525092915050565b803561076781610c5c565b60006020828403121561083c57600080fd5b6000610848848461075c565b949350505050565b6000806040838503121561086357600080fd5b600061086f858561075c565b925050602083013567ffffffffffffffff81111561088c57600080fd5b610898858286016107c1565b9150509250929050565b6000602082840312156108b457600080fd5b813567ffffffffffffffff8111156108cb57600080fd5b6108488482850161076d565b6000806000606084860312156108ec57600080fd5b833567ffffffffffffffff81111561090357600080fd5b61090f8682870161076d565b935050602084013567ffffffffffffffff81111561092c57600080fd5b6109388682870161076d565b925050604084013567ffffffffffffffff81111561095557600080fd5b6109618682870161076d565b9150509250925092565b60006020828403121561097d57600080fd5b6000610848848461081f565b61099281610bf1565b82525050565b60006109a382610bdf565b6109ad8185610be3565b93506109bd818560208601610c0e565b6109c681610c3e565b9093019392505050565b60006109db82610bdf565b6109e58185610bec565b93506109f5818560208601610c0e565b9290920192915050565b600081546001811660008114610a1c5760018114610a3f57610a7e565b607f6002830416610a2d8187610bec565b60ff1984168152955085019250610a7e565b60028204610a4d8187610bec565b9550610a5885610bd3565b60005b82811015610a7757815488820152600190910190602001610a5b565b5050850192505b505092915050565b6000610a93600b83610be3565b6a4d7573742062652047534d60a81b815260200192915050565b61099281610759565b6000610ac282846109d0565b9392505050565b6000610ac282846109ff565b602081016107678284610989565b60208082528101610ac28184610998565b60408082528101610b058185610998565b9050610ac26020830184610aad565b6020808252810161076781610a86565b602081016107678284610aad565b60808101610b408287610aad565b8181036020830152610b528186610998565b90508181036040830152610b668185610998565b90508181036060830152610b7a8184610998565b9695505050505050565b60405181810167ffffffffffffffff81118282101715610ba357600080fd5b604052919050565b600067ffffffffffffffff821115610bc257600080fd5b506020601f91909101601f19160190565b60009081526020902090565b5190565b90815260200190565b919050565b60006001600160a01b038216610767565b82818337506000910152565b60005b83811015610c29578181015183820152602001610c11565b83811115610c38576000848401525b50505050565b601f01601f191690565b610c5181610bf1565b81146106be57600080fd5b610c518161075956fea365627a7a72315820068cc216475de03ea470adfa607bae7aea680a75d6d1c1d5906d848fe6ed84906c6578706572696d656e74616cf564736f6c63430005100040",
  "source": "pragma solidity ^0.5.0;\r\npragma experimental ABIEncoderV2; //typeerror ke liye tha\r\n\r\ncontract LostMobileList{\r\n    uint public lostMobileCount = 0;\r\n    \r\n    struct LostMobile {\r\n    uint id;\r\n    string IMEI;\r\n    string mobileNumber;\r\n    string location;\r\n  }\r\n\r\n  mapping(uint => LostMobile) public LostMobiles;\r\n\r\n  //will optimise subha\r\n  struct Operator{\r\n    string operator;\r\n    uint weight; //0: only search, 1: edit, add, delete, 2: GSM\r\n  }\r\n  mapping(address=> Operator) public users; //map for address and users\r\n  address public gsm;\r\n\r\n  constructor() public {\r\n    gsm=msg.sender;\r\n    users[msg.sender].weight=2;\r\n\r\n  }\r\n  function addOperator(address addr, Operator memory company) public {\r\n     require(msg.sender==gsm,'Must be GSM');\r\n      users[addr]=company;\r\n  }\r\n  function removeOperator(address addr, Operator memory company) public {\r\n    require(msg.sender==gsm,'Must be GSM');\r\n    delete(users[addr]);\r\n    \r\n  }\r\n\r\n\r\n  event LostMobileAdded(\r\n    uint id,\r\n    string IMEI,\r\n    string mobileNumber,\r\n    string location\r\n  );\r\n\r\n  event LostMobileRemoved(\r\n    string IMEI\r\n  );\r\n\r\n    \r\n  event LostMobileEditted(\r\n    uint id,\r\n    string IMEI,\r\n    string mobileNumber,\r\n    string location  \r\n  );\r\n  \r\n  function addLostMobile(string memory _IMEI,string memory _mobileNumber,string memory _location) public {\r\n    lostMobileCount ++;\r\n    LostMobiles[lostMobileCount] = LostMobile(lostMobileCount,_IMEI,_mobileNumber,_location);\r\n    emit LostMobileAdded(lostMobileCount, _IMEI, _mobileNumber, _location);\r\n  }\r\n\r\n  function removeLostMobile(string memory _IMEI) public {\r\n    for(uint i = 1; i<= lostMobileCount; i++){\r\n        if(keccak256(abi.encodePacked(LostMobiles[i].IMEI)) == (keccak256(abi.encodePacked(_IMEI)))) {\r\n            delete LostMobiles[i];\r\n            break;\r\n        }\r\n    }\r\n    lostMobileCount--;\r\n    emit LostMobileRemoved(_IMEI);\r\n  }\r\n\r\n \r\n\r\n}",
  "sourcePath": "C:\\Users\\Pratik Mohan\\Desktop\\projects\\iot-project\\iot-mobile-theft-detection\\contracts\\LostMobileList.sol",
  "compiler": {
    "name": "solc",
    "version": "0.5.16+commit.9c3226ce.Emscripten.clang"
  },
  "schemaVersion": "3.4.11",
  "updatedAt": "2022-12-03T18:43:57.561Z",
  "devdoc": {
    "methods": {}
  },
  "userdoc": {
    "methods": {}
  }
}