{
  "contractName": "LostMobileList",
  "abi": [
    {
      "constant": true,
      "inputs": [],
      "name": "lostMobileCount",
      "outputs": [
        {
          "name": "",
          "type": "uint256"
        }
      ],
      "payable": false,
      "stateMutability": "view",
      "type": "function",
      "signature": "0x2163b756"
    },
    {
      "constant": true,
      "inputs": [
        {
          "name": "",
          "type": "uint256"
        }
      ],
      "name": "LostMobiles",
      "outputs": [
        {
          "name": "id",
          "type": "uint256"
        },
        {
          "name": "IMEI",
          "type": "string"
        },
        {
          "name": "mobileNumber",
          "type": "string"
        },
        {
          "name": "location",
          "type": "string"
        }
      ],
      "payable": false,
      "stateMutability": "view",
      "type": "function",
      "signature": "0x2179582f"
    },
    {
      "anonymous": false,
      "inputs": [
        {
          "indexed": false,
          "name": "id",
          "type": "uint256"
        },
        {
          "indexed": false,
          "name": "IMEI",
          "type": "string"
        },
        {
          "indexed": false,
          "name": "mobileNumber",
          "type": "string"
        },
        {
          "indexed": false,
          "name": "location",
          "type": "string"
        }
      ],
      "name": "LostMobileAdded",
      "type": "event",
      "signature": "0xc2e356eb6a47f10a76daed63eb9b2be65c4f317e49830cdfd6d3cd25e56d8b90"
    },
    {
      "anonymous": false,
      "inputs": [
        {
          "indexed": false,
          "name": "IMEI",
          "type": "string"
        }
      ],
      "name": "LostMobileRemoved",
      "type": "event",
      "signature": "0x32256ae2a7c3c2c828e1161971239d1c0422eaa3701a52a09dc7427caaf41dcc"
    },
    {
      "anonymous": false,
      "inputs": [
        {
          "indexed": false,
          "name": "id",
          "type": "uint256"
        },
        {
          "indexed": false,
          "name": "IMEI",
          "type": "string"
        },
        {
          "indexed": false,
          "name": "mobileNumber",
          "type": "string"
        },
        {
          "indexed": false,
          "name": "location",
          "type": "string"
        }
      ],
      "name": "LostMobileEditted",
      "type": "event",
      "signature": "0x662e55054ebef986a9dc9d0c41b3c8e14e2f4befed35c3477bb6dbf2bd667469"
    },
    {
      "constant": false,
      "inputs": [
        {
          "name": "_IMEI",
          "type": "string"
        },
        {
          "name": "_mobileNumber",
          "type": "string"
        },
        {
          "name": "_location",
          "type": "string"
        }
      ],
      "name": "addLostMobile",
      "outputs": [],
      "payable": false,
      "stateMutability": "nonpayable",
      "type": "function",
      "signature": "0xe77df686"
    },
    {
      "constant": false,
      "inputs": [
        {
          "name": "_IMEI",
          "type": "string"
        }
      ],
      "name": "removeLostMobile",
      "outputs": [],
      "payable": false,
      "stateMutability": "nonpayable",
      "type": "function",
      "signature": "0x0c38d43e"
    },
    {
      "constant": false,
      "inputs": [
        {
          "name": "_IMEI",
          "type": "string"
        },
        {
          "name": "_mobileNumber",
          "type": "string"
        },
        {
          "name": "_location",
          "type": "string"
        }
      ],
      "name": "editLostMobile",
      "outputs": [],
      "payable": false,
      "stateMutability": "nonpayable",
      "type": "function",
      "signature": "0x9b4b21f1"
    }
  ],
  "bytecode": "0x60806040526000805534801561001457600080fd5b50611041806100246000396000f3fe60806040526004361061006c5763ffffffff7c01000000000000000000000000000000000000000000000000000000006000350416630c38d43e81146100715780632163b756146101265780632179582f1461014d5780639b4b21f1146102c2578063e77df68614610483575b600080fd5b34801561007d57600080fd5b506101246004803603602081101561009457600080fd5b8101906020810181356401000000008111156100af57600080fd5b8201836020820111156100c157600080fd5b803590602001918460018302840111640100000000831117156100e357600080fd5b91908080601f016020809104026020016040519081016040528093929190818152602001838380828437600092019190915250929550610644945050505050565b005b34801561013257600080fd5b5061013b610845565b60408051918252519081900360200190f35b34801561015957600080fd5b506101776004803603602081101561017057600080fd5b503561084b565b60405180858152602001806020018060200180602001848103845287818151815260200191508051906020019080838360005b838110156101c25781810151838201526020016101aa565b50505050905090810190601f1680156101ef5780820380516001836020036101000a031916815260200191505b50848103835286518152865160209182019188019080838360005b8381101561022257818101518382015260200161020a565b50505050905090810190601f16801561024f5780820380516001836020036101000a031916815260200191505b50848103825285518152855160209182019187019080838360005b8381101561028257818101518382015260200161026a565b50505050905090810190601f1680156102af5780820380516001836020036101000a031916815260200191505b5097505050505050505060405180910390f35b3480156102ce57600080fd5b50610124600480360360608110156102e557600080fd5b81019060208101813564010000000081111561030057600080fd5b82018360208201111561031257600080fd5b8035906020019184600183028401116401000000008311171561033457600080fd5b91908080601f016020809104026020016040519081016040528093929190818152602001838380828437600092019190915250929594936020810193503591505064010000000081111561038757600080fd5b82018360208201111561039957600080fd5b803590602001918460018302840111640100000000831117156103bb57600080fd5b91908080601f016020809104026020016040519081016040528093929190818152602001838380828437600092019190915250929594936020810193503591505064010000000081111561040e57600080fd5b82018360208201111561042057600080fd5b8035906020019184600183028401116401000000008311171561044257600080fd5b91908080601f016020809104026020016040519081016040528093929190818152602001838380828437600092019190915250929550610a13945050505050565b34801561048f57600080fd5b50610124600480360360608110156104a657600080fd5b8101906020810181356401000000008111156104c157600080fd5b8201836020820111156104d357600080fd5b803590602001918460018302840111640100000000831117156104f557600080fd5b91908080601f016020809104026020016040519081016040528093929190818152602001838380828437600092019190915250929594936020810193503591505064010000000081111561054857600080fd5b82018360208201111561055a57600080fd5b8035906020019184600183028401116401000000008311171561057c57600080fd5b91908080601f01602080910402602001604051908101604052809392919081815260200183838082843760009201919091525092959493602081019350359150506401000000008111156105cf57600080fd5b8201836020820111156105e157600080fd5b8035906020019184600183028401116401000000008311171561060357600080fd5b91908080601f016020809104026020016040519081016040528093929190818152602001838380828437600092019190915250929550610d2d945050505050565b60015b600054811161079f57816040516020018082805190602001908083835b602083106106835780518252601f199092019160209182019101610664565b6001836020036101000a038019825116818451168082178552505050505050905001915050604051602081830303815290604052805190602001206001600083815260200190815260200160002060010160405160200180828054600181600116156101000203166002900480156107325780601f10610710576101008083540402835291820191610732565b820191906000526020600020905b81548152906001019060200180831161071e575b50509150506040516020818303038152906040528051906020012014156107975760008181526001602081905260408220828155919061077490830182610f33565b610782600283016000610f33565b610790600383016000610f33565b505061079f565b600101610647565b506000805460001901815560408051602080825284518183015284517f32256ae2a7c3c2c828e1161971239d1c0422eaa3701a52a09dc7427caaf41dcc948694849390840192908601918190849084905b838110156108085781810151838201526020016107f0565b50505050905090810190601f1680156108355780820380516001836020036101000a031916815260200191505b509250505060405180910390a150565b60005481565b600160208181526000928352604092839020805481840180548651600296821615610100026000190190911695909504601f810185900485028601850190965285855290949193929091908301828280156108e75780601f106108bc576101008083540402835291602001916108e7565b820191906000526020600020905b8154815290600101906020018083116108ca57829003601f168201915b50505060028085018054604080516020601f60001961010060018716150201909416959095049283018590048502810185019091528181529596959450909250908301828280156109795780601f1061094e57610100808354040283529160200191610979565b820191906000526020600020905b81548152906001019060200180831161095c57829003601f168201915b5050505060038301805460408051602060026001851615610100026000190190941693909304601f8101849004840282018401909252818152949594935090830182828015610a095780601f106109de57610100808354040283529160200191610a09565b820191906000526020600020905b8154815290600101906020018083116109ec57829003601f168201915b5050505050905084565b60015b6000548111610d2757836040516020018082805190602001908083835b60208310610a525780518252601f199092019160209182019101610a33565b6001836020036101000a03801982511681845116808217855250505050505090500191505060405160208183030381529060405280519060200120600160008381526020019081526020016000206001016040516020018082805460018160011615610100020316600290048015610b015780601f10610adf576101008083540402835291820191610b01565b820191906000526020600020905b815481529060010190602001808311610aed575b5050915050604051602081830303815290604052805190602001201415610d1f576040805160808101825282815260208082018781528284018790526060830186905260008581526001808452949020835181559051805193949193610b6f93928501929190910190610f7a565b5060408201518051610b8b916002840191602090910190610f7a565b5060608201518051610ba7916003840191602090910190610f7a565b509050507f662e55054ebef986a9dc9d0c41b3c8e14e2f4befed35c3477bb6dbf2bd6674698185858560405180858152602001806020018060200180602001848103845287818151815260200191508051906020019080838360005b83811015610c1b578181015183820152602001610c03565b50505050905090810190601f168015610c485780820380516001836020036101000a031916815260200191505b50848103835286518152865160209182019188019080838360005b83811015610c7b578181015183820152602001610c63565b50505050905090810190601f168015610ca85780820380516001836020036101000a031916815260200191505b50848103825285518152855160209182019187019080838360005b83811015610cdb578181015183820152602001610cc3565b50505050905090810190601f168015610d085780820380516001836020036101000a031916815260200191505b5097505050505050505060405180910390a1610d27565b600101610a16565b50505050565b600080546001908101808355604080516080810182528281526020808201898152828401899052606083018890529386528481529190942084518155915180519293610d8193908501929190910190610f7a565b5060408201518051610d9d916002840191602090910190610f7a565b5060608201518051610db9916003840191602090910190610f7a565b509050507fc2e356eb6a47f10a76daed63eb9b2be65c4f317e49830cdfd6d3cd25e56d8b9060005484848460405180858152602001806020018060200180602001848103845287818151815260200191508051906020019080838360005b83811015610e2f578181015183820152602001610e17565b50505050905090810190601f168015610e5c5780820380516001836020036101000a031916815260200191505b50848103835286518152865160209182019188019080838360005b83811015610e8f578181015183820152602001610e77565b50505050905090810190601f168015610ebc5780820380516001836020036101000a031916815260200191505b50848103825285518152855160209182019187019080838360005b83811015610eef578181015183820152602001610ed7565b50505050905090810190601f168015610f1c5780820380516001836020036101000a031916815260200191505b5097505050505050505060405180910390a1505050565b50805460018160011615610100020316600290046000825580601f10610f595750610f77565b601f016020900490600052602060002090810190610f779190610ff8565b50565b828054600181600116156101000203166002900490600052602060002090601f016020900481019282601f10610fbb57805160ff1916838001178555610fe8565b82800160010185558215610fe8579182015b82811115610fe8578251825591602001919060010190610fcd565b50610ff4929150610ff8565b5090565b61101291905b80821115610ff45760008155600101610ffe565b9056fea165627a7a723058202679db86f0072a079cc2de6819f8846cea62176a9e9294a92a7b3de0383ad24a0029",
  "source": "pragma solidity ^0.5.0;\r\ncontract LostMobileList{\r\n    uint public lostMobileCount = 0;\r\n    \r\n    struct LostMobile {\r\n    uint id;\r\n    string IMEI;\r\n    string mobileNumber;\r\n    string location;\r\n  }\r\n\r\n  mapping(uint => LostMobile) public LostMobiles;\r\n\r\n  event LostMobileAdded(\r\n    uint id,\r\n    string IMEI,\r\n    string mobileNumber,\r\n    string location\r\n  );\r\n\r\n  event LostMobileRemoved(\r\n    string IMEI\r\n  );\r\n\r\n    \r\n  event LostMobileEditted(\r\n    uint id,\r\n    string IMEI,\r\n    string mobileNumber,\r\n    string location  \r\n  );\r\n  \r\n  function addLostMobile(string memory _IMEI,string memory _mobileNumber,string memory _location) public {\r\n    lostMobileCount ++;\r\n    LostMobiles[lostMobileCount] = LostMobile(lostMobileCount,_IMEI,_mobileNumber,_location);\r\n    emit LostMobileAdded(lostMobileCount, _IMEI, _mobileNumber, _location);\r\n  }\r\n\r\n  function removeLostMobile(string memory _IMEI) public {\r\n    for(uint i = 1; i<= lostMobileCount; i++){\r\n        if(keccak256(abi.encodePacked(LostMobiles[i].IMEI)) == (keccak256(abi.encodePacked(_IMEI)))) {\r\n            delete LostMobiles[i];\r\n            break;\r\n        }\r\n    }\r\n    lostMobileCount--;\r\n    emit LostMobileRemoved(_IMEI);\r\n  }\r\n\r\n  function editLostMobile(string memory _IMEI,string memory _mobileNumber,string memory _location) public {\r\n    for(uint i = 1; i<= lostMobileCount; i++){\r\n        if(keccak256(abi.encodePacked(LostMobiles[i].IMEI)) == (keccak256(abi.encodePacked(_IMEI)))){\r\n            LostMobiles[i] = LostMobile(i, _IMEI, _mobileNumber, _location);\r\n            emit LostMobileEditted(i,_IMEI, _mobileNumber, _location);\r\n            break;\r\n        }\r\n  }\r\n}\r\n\r\n}",
  "sourcePath": "E:/BITS/4.1 Psenti Sem ;)/IoT/todo-list/contracts/LostMobileList.sol",
  "compiler": {
    "name": "solc",
    "version": "0.5.0+commit.1d4f565a.Emscripten.clang"
  },
  "schemaVersion": "3.0.1",
  "updatedAt": "2022-12-03T15:50:41.978Z",
  "devdoc": {
    "methods": {}
  },
  "userdoc": {
    "methods": {}
  }
}