{
  "contractName": "LostMobileList",
  "abi": [
    {
      "inputs": [],
      "payable": false,
      "stateMutability": "nonpayable",
      "type": "constructor"
    },
    {
      "anonymous": false,
      "inputs": [
        {
          "indexed": false,
          "internalType": "uint256",
          "name": "id",
          "type": "uint256"
        },
        {
          "indexed": false,
          "internalType": "string",
          "name": "IMEI",
          "type": "string"
        },
        {
          "indexed": false,
          "internalType": "string",
          "name": "mobileNumber",
          "type": "string"
        },
        {
          "indexed": false,
          "internalType": "string",
          "name": "location",
          "type": "string"
        }
      ],
      "name": "LostMobileAdded",
      "type": "event"
    },
    {
      "anonymous": false,
      "inputs": [
        {
          "indexed": false,
          "internalType": "uint256",
          "name": "id",
          "type": "uint256"
        },
        {
          "indexed": false,
          "internalType": "string",
          "name": "IMEI",
          "type": "string"
        },
        {
          "indexed": false,
          "internalType": "string",
          "name": "mobileNumber",
          "type": "string"
        },
        {
          "indexed": false,
          "internalType": "string",
          "name": "location",
          "type": "string"
        }
      ],
      "name": "LostMobileEditted",
      "type": "event"
    },
    {
      "anonymous": false,
      "inputs": [
        {
          "indexed": false,
          "internalType": "string",
          "name": "IMEI",
          "type": "string"
        }
      ],
      "name": "LostMobileRemoved",
      "type": "event"
    },
    {
      "constant": true,
      "inputs": [
        {
          "internalType": "uint256",
          "name": "",
          "type": "uint256"
        }
      ],
      "name": "LostMobiles",
      "outputs": [
        {
          "internalType": "uint256",
          "name": "id",
          "type": "uint256"
        },
        {
          "internalType": "string",
          "name": "IMEI",
          "type": "string"
        },
        {
          "internalType": "string",
          "name": "mobileNumber",
          "type": "string"
        },
        {
          "internalType": "string",
          "name": "location",
          "type": "string"
        }
      ],
      "payable": false,
      "stateMutability": "view",
      "type": "function"
    },
    {
      "constant": true,
      "inputs": [],
      "name": "gsm",
      "outputs": [
        {
          "internalType": "address",
          "name": "",
          "type": "address"
        }
      ],
      "payable": false,
      "stateMutability": "view",
      "type": "function"
    },
    {
      "constant": true,
      "inputs": [],
      "name": "lostMobileCount",
      "outputs": [
        {
          "internalType": "uint256",
          "name": "",
          "type": "uint256"
        }
      ],
      "payable": false,
      "stateMutability": "view",
      "type": "function"
    },
    {
      "constant": true,
      "inputs": [
        {
          "internalType": "address",
          "name": "",
          "type": "address"
        }
      ],
      "name": "users",
      "outputs": [
        {
          "internalType": "string",
          "name": "operator",
          "type": "string"
        },
        {
          "internalType": "uint256",
          "name": "weight",
          "type": "uint256"
        }
      ],
      "payable": false,
      "stateMutability": "view",
      "type": "function"
    },
    {
      "constant": false,
      "inputs": [
        {
          "internalType": "address",
          "name": "addr",
          "type": "address"
        },
        {
          "components": [
            {
              "internalType": "string",
              "name": "operator",
              "type": "string"
            },
            {
              "internalType": "uint256",
              "name": "weight",
              "type": "uint256"
            }
          ],
          "internalType": "struct LostMobileList.Operator",
          "name": "company",
          "type": "tuple"
        }
      ],
      "name": "addOperator",
      "outputs": [],
      "payable": false,
      "stateMutability": "nonpayable",
      "type": "function"
    },
    {
      "constant": false,
      "inputs": [
        {
          "internalType": "address",
          "name": "addr",
          "type": "address"
        },
        {
          "components": [
            {
              "internalType": "string",
              "name": "operator",
              "type": "string"
            },
            {
              "internalType": "uint256",
              "name": "weight",
              "type": "uint256"
            }
          ],
          "internalType": "struct LostMobileList.Operator",
          "name": "company",
          "type": "tuple"
        }
      ],
      "name": "removeOperator",
      "outputs": [],
      "payable": false,
      "stateMutability": "nonpayable",
      "type": "function"
    },
    {
      "constant": false,
      "inputs": [
        {
          "internalType": "string",
          "name": "_IMEI",
          "type": "string"
        },
        {
          "internalType": "string",
          "name": "_mobileNumber",
          "type": "string"
        },
        {
          "internalType": "string",
          "name": "_location",
          "type": "string"
        }
      ],
      "name": "addLostMobile",
      "outputs": [],
      "payable": false,
      "stateMutability": "nonpayable",
      "type": "function"
    },
    {
      "constant": false,
      "inputs": [
        {
          "internalType": "string",
          "name": "_IMEI",
          "type": "string"
        }
      ],
      "name": "removeLostMobile",
      "outputs": [],
      "payable": false,
      "stateMutability": "nonpayable",
      "type": "function"
    },
    {
      "constant": false,
      "inputs": [
        {
          "internalType": "string",
          "name": "_IMEI",
          "type": "string"
        },
        {
          "internalType": "string",
          "name": "_mobileNumber",
          "type": "string"
        },
        {
          "internalType": "string",
          "name": "_location",
          "type": "string"
        }
      ],
      "name": "editLostMobile",
      "outputs": [],
      "payable": false,
      "stateMutability": "nonpayable",
      "type": "function"
    }
  ],
  "bytecode": "0x60806040526000805534801561001457600080fd5b50600380546001600160a01b031916339081179091556000908152600260208190526040909120600101556111528061004e6000396000f3fe608060405234801561001057600080fd5b50600436106100935760003560e01c8063a87430ba11610066578063a87430ba14610101578063e6b1a2fb14610122578063e77df68614610135578063f44320a014610148578063f70ce4c61461015d57610093565b80630c38d43e146100985780632163b756146100ad5780632179582f146100cb5780639b4b21f1146100ee575b600080fd5b6100ab6100a6366004610c9b565b610170565b005b6100b56102b3565b6040516100c29190610fd2565b60405180910390f35b6100de6100d9366004610d64565b6102b9565b6040516100c29493929190610fe0565b6100ab6100fc366004610cd0565b610481565b61011461010f366004610c23565b6107f6565b6040516100c2929190610f82565b6100ab610130366004610c49565b610897565b6100ab610143366004610cd0565b6108f2565b6101506109f9565b6040516100c29190610f63565b6100ab61016b366004610c49565b610a08565b33600090815260026020526040902060019081015410156101ac5760405162461bcd60e51b81526004016101a390610fa2565b60405180910390fd5b60015b600054811161026d57816040516020016101c99190610f44565b60405160208183030381529060405280519060200120600160008381526020019081526020016000206001016040516020016102059190610f57565b6040516020818303038152906040528051906020012014156102655760008181526001602081905260408220828155919061024290830182610a73565b610250600283016000610a73565b61025e600383016000610a73565b505061026d565b6001016101af565b50600080546000190190556040517f32256ae2a7c3c2c828e1161971239d1c0422eaa3701a52a09dc7427caaf41dcc906102a8908390610f71565b60405180910390a150565b60005481565b600160208181526000928352604092839020805481840180548651600296821615610100026000190190911695909504601f810185900485028601850190965285855290949193929091908301828280156103555780601f1061032a57610100808354040283529160200191610355565b820191906000526020600020905b81548152906001019060200180831161033857829003601f168201915b50505060028085018054604080516020601f60001961010060018716150201909416959095049283018590048502810185019091528181529596959450909250908301828280156103e75780601f106103bc576101008083540402835291602001916103e7565b820191906000526020600020905b8154815290600101906020018083116103ca57829003601f168201915b5050505060038301805460408051602060026001851615610100026000190190941693909304601f81018490048402820184019092528181529495949350908301828280156104775780601f1061044c57610100808354040283529160200191610477565b820191906000526020600020905b81548152906001019060200180831161045a57829003601f168201915b5050505050905084565b33600090815260026020526040902060019081015410156104b45760405162461bcd60e51b81526004016101a390610fa2565b60015b60005481116107f057836040516020016104d19190610f44565b604051602081830303815290604052805190602001206001600083815260200190815260200160002060010160405160200161050d9190610f57565b6040516020818303038152906040528051906020012014156107e8576040805160208082018352600082529151859285929161054b91839101610f44565b60405160208183030381529060405280519060200120866040516020016105729190610f44565b604051602081830303815290604052805190602001201415610629576000848152600160208181526040928390206002908101805485519481161561010002600019011691909104601f81018390048302840183019094528383529192908301828280156106215780601f106105f657610100808354040283529160200191610621565b820191906000526020600020905b81548152906001019060200180831161060457829003601f168201915b505050505092505b8060405160200161063a9190610f44565b60405160208183030381529060405280519060200120856040516020016106619190610f44565b60405160208183030381529060405280519060200120141561071a5760008481526001602081815260409283902060030180548451600294821615610100026000190190911693909304601f81018390048302840183019094528383529192908301828280156107125780601f106106e757610100808354040283529160200191610712565b820191906000526020600020905b8154815290600101906020018083116106f557829003601f168201915b505050505091505b6040805160808101825285815260208082018a8152828401879052606083018690526000888152600180845294902083518155905180519394919361076793928501929190910190610aba565b5060408201518051610783916002840191602090910190610aba565b506060820151805161079f916003840191602090910190610aba565b509050507f662e55054ebef986a9dc9d0c41b3c8e14e2f4befed35c3477bb6dbf2bd667469848885856040516107d89493929190610fe0565b60405180910390a15050506107f0565b6001016104b7565b50505050565b600260208181526000928352604092839020805484516001821615610100026000190190911693909304601f81018390048302840183019094528383529283918301828280156108875780601f1061085c57610100808354040283529160200191610887565b820191906000526020600020905b81548152906001019060200180831161086a57829003601f168201915b5050505050908060010154905082565b6003546001600160a01b031633146108c15760405162461bcd60e51b81526004016101a390610fb2565b6001600160a01b0382166000908152600260205260408120906108e48282610a73565b600182016000905550505050565b33600090815260026020526040902060019081015410156109255760405162461bcd60e51b81526004016101a390610fc2565b60008054600190810180835560408051608081018252828152602080820189815282840189905260608301889052938652848152919094208451815591518051929361097993908501929190910190610aba565b5060408201518051610995916002840191602090910190610aba565b50606082015180516109b1916003840191602090910190610aba565b509050507fc2e356eb6a47f10a76daed63eb9b2be65c4f317e49830cdfd6d3cd25e56d8b906000548484846040516109ec9493929190610fe0565b60405180910390a1505050565b6003546001600160a01b031681565b6003546001600160a01b03163314610a325760405162461bcd60e51b81526004016101a390610fb2565b6001600160a01b0382166000908152600260209081526040909120825180518493610a61928492910190610aba565b50602082015181600101559050505050565b50805460018160011615610100020316600290046000825580601f10610a995750610ab7565b601f016020900490600052602060002090810190610ab79190610b38565b50565b828054600181600116156101000203166002900490600052602060002090601f016020900481019282601f10610afb57805160ff1916838001178555610b28565b82800160010185558215610b28579182015b82811115610b28578251825591602001919060010190610b0d565b50610b34929150610b38565b5090565b610b5291905b80821115610b345760008155600101610b3e565b90565b8035610b60816110f2565b92915050565b600082601f830112610b7757600080fd5b8135610b8a610b8582611059565b611032565b91508082526020830160208301858383011115610ba657600080fd5b610bb18382846110b0565b50505092915050565b600060408284031215610bcc57600080fd5b610bd66040611032565b9050813567ffffffffffffffff811115610bef57600080fd5b610bfb84828501610b66565b8252506020610c0c84848301610c18565b60208301525092915050565b8035610b6081611106565b600060208284031215610c3557600080fd5b6000610c418484610b55565b949350505050565b60008060408385031215610c5c57600080fd5b6000610c688585610b55565b925050602083013567ffffffffffffffff811115610c8557600080fd5b610c9185828601610bba565b9150509250929050565b600060208284031215610cad57600080fd5b813567ffffffffffffffff811115610cc457600080fd5b610c4184828501610b66565b600080600060608486031215610ce557600080fd5b833567ffffffffffffffff811115610cfc57600080fd5b610d0886828701610b66565b935050602084013567ffffffffffffffff811115610d2557600080fd5b610d3186828701610b66565b925050604084013567ffffffffffffffff811115610d4e57600080fd5b610d5a86828701610b66565b9150509250925092565b600060208284031215610d7657600080fd5b6000610c418484610c18565b610d8b8161109f565b82525050565b6000610d9c8261108d565b610da68185611091565b9350610db68185602086016110bc565b610dbf816110e8565b9093019392505050565b6000610dd48261108d565b610dde818561109a565b9350610dee8185602086016110bc565b9290920192915050565b600081546001811660008114610e155760018114610e3857610e77565b607f6002830416610e26818761109a565b60ff1984168152955085019250610e77565b60028204610e46818761109a565b9550610e5185611081565b60005b82811015610e7057815488820152600190910190602001610e54565b5050850192505b505092915050565b6000610e8c602e83611091565b7f4f6e6c79204f70657261746f727320616e642047534d2063616e2072656d6f7681526d65204c6f7374204d6f62696c657360901b602082015260400192915050565b6000610edc600b83611091565b6a4d7573742062652047534d60a81b815260200192915050565b6000610f03602383611091565b7f4f6e6c79204f70657261746f72732063616e20616464204c6f7374204d6f62698152626c657360e81b602082015260400192915050565b610d8b81610b52565b6000610f508284610dc9565b9392505050565b6000610f508284610df8565b60208101610b608284610d82565b60208082528101610f508184610d91565b60408082528101610f938185610d91565b9050610f506020830184610f3b565b60208082528101610b6081610e7f565b60208082528101610b6081610ecf565b60208082528101610b6081610ef6565b60208101610b608284610f3b565b60808101610fee8287610f3b565b81810360208301526110008186610d91565b905081810360408301526110148185610d91565b905081810360608301526110288184610d91565b9695505050505050565b60405181810167ffffffffffffffff8111828210171561105157600080fd5b604052919050565b600067ffffffffffffffff82111561107057600080fd5b506020601f91909101601f19160190565b60009081526020902090565b5190565b90815260200190565b919050565b60006001600160a01b038216610b60565b82818337506000910152565b60005b838110156110d75781810151838201526020016110bf565b838111156107f05750506000910152565b601f01601f191690565b6110fb8161109f565b8114610ab757600080fd5b6110fb81610b5256fea365627a7a72315820819b14f451b036627313abb265e24a87801710cb8e7df080010a455e2fd9dd856c6578706572696d656e74616cf564736f6c63430005100040",
  "source": "pragma solidity ^0.5.0;\r\npragma experimental ABIEncoderV2; //typeerror ke liye tha\r\n\r\ncontract LostMobileList{\r\n    uint public lostMobileCount = 0;\r\n    \r\n    struct LostMobile {\r\n    uint id;\r\n    string IMEI;\r\n    string mobileNumber;\r\n    string location;\r\n  }\r\n\r\n  mapping(uint => LostMobile) public LostMobiles;\r\n\r\n  event LostMobileAdded(\r\n    uint id,\r\n    string IMEI,\r\n    string mobileNumber,\r\n    string location\r\n  );\r\n\r\n  event LostMobileRemoved(\r\n    string IMEI\r\n  );\r\n\r\n    \r\n  event LostMobileEditted(\r\n    uint id,\r\n    string IMEI,\r\n    string mobileNumber,\r\n    string location  \r\n  );\r\n  //will optimise subha\r\n  struct Operator{\r\n    string operator;\r\n    uint weight; //1: edit, add, delete, 2: GSM\r\n  }\r\n  mapping(address=> Operator) public users; //map for address and users\r\n  address public gsm;\r\n\r\n  constructor() public {\r\n    gsm=msg.sender;\r\n    users[msg.sender].weight=2;\r\n\r\n  }\r\n  function addOperator(address addr, Operator memory company) public {\r\n     require(msg.sender==gsm,'Must be GSM');\r\n      users[addr]=company;\r\n  }\r\n  function removeOperator(address addr, Operator memory company) public {\r\n    require(msg.sender==gsm,'Must be GSM');\r\n    delete(users[addr]);\r\n    \r\n  }  \r\n\r\n  function addLostMobile(string memory _IMEI,string memory _mobileNumber,string memory _location) public {\r\n    require(users[msg.sender].weight>=1,'Only Operators can add Lost Mobiles');\r\n    lostMobileCount ++;\r\n    LostMobiles[lostMobileCount] = LostMobile(lostMobileCount,_IMEI,_mobileNumber,_location);\r\n    emit LostMobileAdded(lostMobileCount, _IMEI, _mobileNumber, _location);\r\n  }\r\n\r\n  function removeLostMobile(string memory _IMEI) public {\r\n    require(users[msg.sender].weight>=1,'Only Operators and GSM can remove Lost Mobiles');\r\n    for(uint i = 1; i<= lostMobileCount; i++){\r\n        if(keccak256(abi.encodePacked(LostMobiles[i].IMEI)) == (keccak256(abi.encodePacked(_IMEI)))) {\r\n            delete LostMobiles[i];\r\n            break;\r\n        }\r\n    }\r\n    lostMobileCount--;\r\n    emit LostMobileRemoved(_IMEI);\r\n  }\r\n\r\nfunction editLostMobile(string memory _IMEI,string memory _mobileNumber,string memory _location) public {\r\n   require(users[msg.sender].weight>=1,'Only Operators and GSM can remove Lost Mobiles');\r\n    for(uint i = 1; i<= lostMobileCount; i++){\r\n        if(keccak256(abi.encodePacked(LostMobiles[i].IMEI)) == (keccak256(abi.encodePacked(_IMEI)))){\r\n            \r\n            string memory mobNum = _mobileNumber;\r\n            string memory loc = _location;\r\n            string memory empty = \"\";\r\n\r\n            if(keccak256(abi.encodePacked(_mobileNumber)) == (keccak256(abi.encodePacked(empty)))){\r\n              mobNum = LostMobiles[i].mobileNumber;\r\n            }\r\n\r\n            if(keccak256(abi.encodePacked(_location)) == (keccak256(abi.encodePacked(empty)))){\r\n              loc = LostMobiles[i].location;\r\n            }\r\n            \r\n            LostMobiles[i] = LostMobile(i, _IMEI, mobNum, loc);\r\n            emit LostMobileEditted(i, _IMEI, mobNum, loc);\r\n            break;\r\n        }\r\n  }}\r\n\r\n}",
  "sourcePath": "C:\\Users\\Pratik Mohan\\Desktop\\projects\\iot-project\\iot-mobile-theft-detection\\contracts\\LostMobileList.sol",
  "compiler": {
    "name": "solc",
    "version": "0.5.16+commit.9c3226ce.Emscripten.clang"
  },
  "schemaVersion": "3.4.11",
  "updatedAt": "2022-12-09T12:37:54.524Z",
  "networkType": "ethereum",
  "devdoc": {
    "methods": {}
  },
  "userdoc": {
    "methods": {}
  }
}